:020000040800F2
:10000000A836002059020008F53F00080536000810
:10001000F13F0008CD0400089547000800000000EB
:100020000000000000000000000000003141000856
:100030003105000800000000F93F000835410008C4
:1000400073020008730200087302000873020008BC
:1000500073020008730200087302000873020008AC
:10006000730200087302000873020008730200089C
:10007000F504000873020008730200087302000808
:100080007302000873020008C1040008E9040008B4
:10009000D1040008DD0400087302000873020008A0
:1000A000730200084D410008730200087302000843
:1000B000730200087302000873020008730200084C
:1000C000730200087302000873020008730200083C
:1000D00073020008730200087302000889470008D1
:1000E000730200087302000873020008730200081C
:1000F000730200087302000873020008730200080C
:1001000073020008730200087302000873020008FB
:1001100073020008730200085941000873020008C6
:1001200073020008010500080D05000873020008AD
:1001300073020008730200087302000873020008CB
:1001400073020008730200087302000873020008BB
:10015000730200081905000825050008730200084D
:10016000730200087302000873020008730200089B
:100170007302000873020008730200080000000008
:10018000730200087302000800F002F800F054F84F
:1001900014A696E8000CB244B344DA4501D100F04D
:1001A0004BF8BAE80F000FA696E83000A5EB04055F
:1001B00004EB0607AAEB0704A7F101074FEA1515A0
:1001C0004FEA3414A4F10104AC4201D300F034F836
:1001D00013F0010F18BFFB1A43F0010300F001F800
:1001E000DBE71847A4510000C4510000103A24BFB7
:1001F00078C878C1FAD8520724BF30C830C144BF8C
:1002000004680C6070470000704700000023002461
:1002100000250026103A28BF78C1FBD8520728BF16
:1002200030C148BF0B6070471FB505F08AF800F079
:10023000F7F81FBD10B510BD00F008F91146FFF723
:10024000F3FF04F08FFD00F026F903B4FFF7F2FF8F
:1002500003BC00F02DF90000094880470948004719
:10026000FEE7FEE7FEE7FEE7FEE7FEE7FEE7FEE766
:10027000FEE7FEE704480549054A064B70470000C3
:100280003941000889010008A8060020A83600208E
:10029000A8160020A816002053EA020C00F069807E
:1002A0002DE9F04B4FF00006002B1FBFB3FA83F58A
:1002B00003FA05F424FA05F65E4012BF1643B2FABB
:1002C00082F502FA05F4C5F120051EBF22FA05FCED
:1002D00044EA0C04203556EA044C4FEA144418BF93
:1002E000641C4FF000084FF00009904271EB030CC2
:1002F00039D3002919BFB1FA81F701FA07F6B0FA2C
:1003000080F700FA07F6C7F120071EBF20FA07FCA6
:1003100046EA0C062037B6FBF4FCA7EB0507103FB6
:1003200007F01F0BCBF120062CFA06F60CFA0BFB9C
:1003300044BFB3460026202FA4BF5E464FF0000BFB
:100340005BEA060C08BF4FF0010B19EB0B0948EBF9
:100350000608ABFB027C06FB02CC0BFB03CCC01BEC
:1003600071EB0C01C1E70B46024641464846BDE829
:10037000F08B13B5084318BF4FF0FF300146AFF3C1
:100380000080BDE81C4070474FF000020429C0F017
:10039000128010F0030C00F01B80CCF1040CBCF1B7
:1003A000020F18BF00F8012BA8BF20F8022BA1EB09
:1003B0000C0100F00DB85FEAC17C24BF00F8012BEE
:1003C00000F8012B48BF00F8012B70474FF00002E6
:1003D00000B5134694469646203922BFA0E80C503B
:1003E000A0E80C50B1F12001BFF4F7AF090728BF16
:1003F000A0E80C5048BF0CC05DF804EB890028BF92
:1004000040F8042B08BF704748BF20F8022B11F0BA
:10041000804F18BF00F8012B704770477047704736
:1004200008487CB57844009007487844009C05460D
:10043000019004E02046016808448047241DAC4236
:10044000F8D17CBD804F00007E4F0000754600F063
:100450002BF8AE4605006946534620F00700854656
:1004600018B020B5FFF706FFBDE820404FF00006AA
:100470004FF000074FF000084FF0000BAC46ACE81F
:10048000C009ACE8C009ACE8C009ACE8C00921F07B
:1004900007018D46704710B50446AFF30080204633
:1004A000BDE81040FFF7D1BE0048704710000020A3
:1004B00001491820ABBEFEE726000200704700008D
:1004C00040F24010C2F2000000F0A0B9FEE70000C8
:1004D00040F28810C2F2000000F09ABC40F288108E
:1004E000C2F2000000F094BC40F28810C2F200009A
:1004F00000F08EBC40F29820C2F2000000F08CBFE9
:1005000040F2F820C2F2000000F086BF40F2D8109E
:10051000C2F2000000F080BF40F25830C2F200008A
:1005200000F07ABF40F23820C2F2000000F074BF41
:100530007047000080EE200A9FED021A20EE010AAB
:10054000704700BF0000B443EFF3108072B600BFE5
:10055000FEE7000090F83C20012A04BF022070470B
:10056000F0B5D1F800C00122BCF10A0F80F83C20A0
:100570000CD31FFA8CFE4FEA4E02036812FA8CF27B
:10058000A2F11E0403F10C0206E000BF03680CEBAD
:100590004C0403F11002E64607251668A54026EA3A
:1005A000050515608D68166805FA04F43443146077
:1005B0009A6B002622F440129A634D680A698C698E
:1005C000CFF6F0769F6B06EB0256AA1A3E43033233
:1005D0009E63D6B2B60056FA82F21F269F6B9640F3
:1005E00027EA06069E639E6B0EFA02F232439A6376
:1005F0009A68012722F470229A609A68C0F20F0765
:10060000BC4203D122F440140AE000BF22439A60A6
:100610009A6822F440129A60CA699F6847EA020405
:100620009C600A7D4F7D5E68002F26F4806618BFAF
:1006300006F580665E605F68002A27F4805718BF61
:1006400007F58057032D5F6008D0022D0AD0012DD9
:1006500014BF03F1200203F1140205E003F11C02B0
:1006600002E000BF03F11802176840F6FF76B743B7
:100670001760CF68166842F20431C4F201013743B3
:10068000A1F54176B34217600FD1BCF1120F03D12F
:100690004FF4800206E000BF2CF00102102A04D1C2
:1006A0004FF400020B681A430A60002180F83C10E6
:1006B000BDE8F040084670477047000070B581B053
:1006C0000022009290F83C20012A03D10221084622
:1006D00001B070BD0E6801220A2E80F83C2009D3BB
:1006E000B2B25200D0F800E012FA86F21E3A0EF1D1
:1006F0000C0305E0D0F800E006EB46020EF1100313
:100700004FF0070C1D680CFA02F4A5431D608D68BC
:100710001C6805FA02F222431A60496806290FD8BC
:1007200001EB81014A1F71461F2351F8345F93404A
:1007300025EA03030B60B3B203FA02F214E000BF30
:1007400001EB81030C29B2B204D8714651F8304F45
:10075000233B03E0714651F82C4F413B1F259D4040
:1007600024EA05059A400D600B6842F2043CC4F28D
:10077000010C1A43ACF541739E450A603BD1122E21
:1007800006D1DCF8001041F48001CCF8001032E012
:1007900026F0010110292ED1DCF80010102E41F4B2
:1007A0000001CCF8001026D140F20801C2F200018D
:1007B00009684DF68362C4F21B32A1FB0212910C50
:1007C00001EB8101490000910099A1B10099013923
:1007D0000091009979B1009901390091009951B1C6
:1007E000009901390091009929B1009901390091CE
:1007F00000990029EAD1002180F83C10084601B098
:1008000070BD0000704700007047000070B50446DE
:10081000006806684568B10717D515F0200114D0A7
:10082000216CC90603D4216C41F4007121648168F4
:1008300011F0405F02D1217E002969D02046FFF7E8
:10084000E1FF20686FF012010160710714D515F007
:10085000800111D0216CC90603D4216C41F40051F0
:100860002164816811F4401F22D02046FFF724FF45
:1008700020686FF00C010160F10706D015F040010F
:100880001CBF01685FEAC17134D1B1060FD515F004
:10089000806108BF70BD616C6FF0200541F00201FE
:1008A000616405602046FFF7AFFF2068056070BDFA
:1008B000816B11F4401F02D081684905D5D441688D
:1008C0004905D2D4816811F0405FCED1217E002944
:1008D000CBD1416821F080014160206C20F4805030
:1008E0002064206CC005C0D4206C40F0010020645E
:1008F000BBE700BF206C40F480302064204600F04D
:10090000D1F820686FF001010160B106BFD4CEE7D5
:10091000C16A11F4700F03D0816849053FF58EAFAD
:10092000416821F020014160206C20F48070206437
:10093000206CC0043FF582AF206C40F001002064C1
:100940007CE70000002804BF0120704710B5044672
:10095000006C00283ED0206CC00645D4206C41F2CB
:1009600002118843023042F204312064C4F20101D2
:10097000086820F4403008600A6894E809101A43B7
:10098000D4F810E00A604168012321F480714160CD
:100990004168C0F6007341EA0E214160416821F0D0
:1009A00040714160416841EA0C014160816821F475
:1009B00000618160E168826811438160A16A826898
:1009C000994222F070628260826813D122F0405115
:1009D00019E000BF204600F067F80020606484F84A
:1009E0003C00206CC006B9D50120002184F83C10E1
:1009F00010BD00BF11438160816821F040518160CA
:100A0000E16A826811438160816821F0020181609E
:100A10008168227E94F8203041EA42018160416879
:100A200083B141F40061416041684EF2000221F45B
:100A300060414160616ACFF6FF72436802EB413169
:100A4000194301E021F400614160C16A40F2000CE9
:100A500021F47001C162E2696169CFF6F07CC36A7A
:100A60000CEB02521A43C262826822F40072826066
:100A700094F83020836843EA42228260826822F43C
:100A800080628260826842EA812181600020606425
:100A9000216C012262F301012164002184F83C10E1
:100AA00010BD00007047000080B586B042F2002102
:100AB0000068C4F20101002288420592049201D02C
:100AC00006B080BD43F630000092C4F202004369D4
:100AD00043F480634361436903F480630093009BA4
:100AE0000092036843F020030360006800F02000D8
:100AF000009000984FF4806001900320CDE902023D
:100B000001F5724001A900F06BFE122000210022C5
:100B100000F0D4FF122000F0BFFF06B080BD00003F
:100B200090F82020013A012A08D8006800F1140248
:100B30000020136819431160704700BF00F12402C0
:100B400001204FF4802113681943116070470000A1
:100B500010B590F820E0D0F800C0AEF1010EBEF163
:100B6000010FDCF808E011D81EF0E05F18D0CEF3DA
:100B7000016EBEF1030F1DD100F1240101204FF4DD
:100B800000020B681A430A6010BD00BF00F1240187
:100B900001204FF480220B681A430A6010BD00BF89
:100BA00000F1240101204FF400120B681A430A607F
:100BB00010BD00BF012000FA0EF01860886828B14F
:100BC0004B68CC6844EAC303034303E00868CB687E
:100BD00043EA40530CEB0E10C0F880310B69C0F8AB
:100BE0008431097D012905D100F5C2710B6843F4F8
:100BF00080730B605168C0F88C11126800F5C071E9
:100C0000C0F88821002001220B681A430A6010BD39
:100C100090F82020013A012A30D8B0B546F20060A1
:100C2000C4F20000026842F001020260026822F48D
:100C30007C520260D1F814E0CC694A6A0368012C46
:100C400043EA022202600EF01F024FF0010303FA92
:100C500002F2C3696FEA020C23EA0203C36113D0F4
:100C60002CBBC36803EA0C03C360CB688C8844EADE
:100C7000034300EBCE0423640B4611E0416A41F4C8
:100C80008021416201207047C3681343C3600B6831
:100C90008C8844EA034300EBCE04236401F10C0387
:100CA0008C681B8843EA044300EBCE04636443680A
:100CB0008D6943EA0204D1F810E0096A002D08BFEB
:100CC00003EA0C0444604369BEF1000F43EA0204E6
:100CD00008BF03EA0C040129446102D1C169114330
:100CE000C161016821F0010101600020B0BD000078
:100CF0007047000010B590F82040013C012C73D8DB
:100D0000D0F800C000290CBFDCF80C40DCF8104023
:100D1000A40773D00CEB011CDCF8B0410CF5D87EB5
:100D200014F004049460DCF8B04119BFE408546086
:100D3000640D1460DEF80040002904F00204D46061
:100D4000DCF8B44104F00F041461DCF8B441C4F3DE
:100D500007249461DCF8B4414FEA14445461DCF890
:100D6000B8211A70026802EB0112D2F8B8214FEADA
:100D700012225A70026802EB0112D2F8B8214FEA2F
:100D800012429A70026802EB0112D2F8B8214FEABF
:100D90001262DA70026802EB0112D2F8BC211A71F9
:100DA000026802EB0112D2F8BC214FEA12225A71FA
:100DB000026802EB0112D2F8BC214FEA12429A718A
:100DC000026802EB0112D2F8BC214FEA1262DA711A
:100DD00000680CBF00F10C0100F11001002020227E
:100DE0000B681A430A6010BD00F1240101204FF482
:100DF00080220B681A430A6010BD00BF00F1240175
:100E000001204FF400120B681A430A6010BD000065
:100E10002DE9F04F81B0044600684669D0F804908F
:100E20008768D0F80CB0D0F810A0D0F81880F1077F
:100E300004D1002530071DD424E000BFF90710D0ED
:100E40000121BA07816009D4780700F1AF80380723
:100E500000F1B680204600F077FA02E0204600F06C
:100E600075FA0025F80500F18780F80300F1B180DC
:100E7000300707D51BF0100004D0206845F400753A
:100E80001021C160700708D51BF0080005D020684C
:100E90000821C160204600F00DFAB00706D5206891
:100EA000C068800702D0204600F006FA700607D519
:100EB0001AF0100004D0206845F48065102101610B
:100EC000B00608D51AF0080005D020680821016195
:100ED000204600F005FAF00606D520680069800774
:100EE00002D0204600F0FEF9B00308D519F010003A
:100EF00005D0206810214160204600F0F5F9F0038C
:100F000008D519F0080005D0206808214160204666
:100F100000F026FA300440F19B805FEA497040F10E
:100F2000948006F4807008EA102028435FEA8871F4
:100F3000014648BF41F00201B20558BF01465FEAD1
:100F400048700D4648BF45F00405700558BF0D4672
:100F5000300540F17A8018F0700000F0768010388B
:100F6000000905286CD8DFE800F003595D61656968
:100F700045F0080564E000BF20684FF48071BA05B1
:100F800081600BD4780515D438051DD4204600F0B7
:100F9000DFF9F8037FF56CAF1BE000BF204600F0DF
:100FA000D9F9F8037FF564AF13E000BF4FF4006593
:100FB00058E700BF05F50055F8037FF559AF08E085
:100FC0004FF480554EE700BF05F58045F8037FF5E7
:100FD0004FAF20684FF48031BA0381600AD47803A0
:100FE00010D4380314D4204600F0B6F930073FF58A
:100FF00041AF47E7204600F0B1F930073FF53AAF7F
:1010000040E700BF05F5004530073FF533AF39E74E
:1010100005F5803530073FF52DAF33E745F0100576
:101020000EE000BF45F020050AE000BF45F0400596
:1010300006E000BF45F0800502E000BF45F4807582
:101040002068816921F0700181612068042141607C
:1010500055B1606A40EA05012046616201B0BDE811
:10106000F04FFFF745BE00BF01B0BDE8F08F0000B4
:10107000002804BF01207047B0B5044690F8200056
:1010800010B9204600F06EF82068016841F00101B7
:10109000016000F07BFC054620684168C90705D166
:1010A00000F074FC401B0B28F6D310E0016821F01F
:1010B0000201016000F06AFC054600BF206841683B
:1010C00089070DD500F062FC401B0B28F6D3606A3F
:1010D000052140F400306062012084F82010B0BD8A
:1010E000217E0268012922F0800208BF803202605E
:1010F000617E0268012922F0400208BF403202608E
:10110000A17E0268012922F0200208BF203202607D
:10111000E17E0268012922F0100218BF103202603D
:10112000217F0268012922F0080208BF083202600C
:10113000617F0268012922F0040208BF04320260C4
:10114000D4E901C2D4E9033561691A432A43114342
:10115000ACF101021143C16100200121606284F8F9
:101160002010B0BD80B586B0006846F60002C4F21B
:10117000000200219042CDE90411CDE90211019154
:1011800056D046F20041C4F20001884240F08F8000
:1011900040F23C11C2F200010A6843F64000C4F27A
:1011A0000200531C0B6052B900210091016841F00C
:1011B00000710160016801F0007100910099002147
:1011C000009150F8102C42F0080240F8102C50F812
:1011D000100C022200F008000090009803200190FB
:1011E00004900920059040F20040C4F20200CDE9CD
:1011F000022100F5006001A900F0F2FA132000219D
:10120000002200F05BFC132000F046FC14200021BB
:10121000002200F053FC142000F03EFC15200021B9
:10122000002200F04BFC152000F036FC06B080BD1B
:1012300043F64000C4F202000091016841F0806171
:101240000160016801F080610091009940F23C1159
:10125000C2F200010A68531C0B6052B900210091D0
:10126000016841F000710160016801F000710091B6
:1012700000990021009150F8102C42F0020240F831
:10128000102C50F8100C00F0020000900098602024
:1012900001900220CDE9020103200490092005906D
:1012A00040F20040C4F2020001A900F099FA06B031
:1012B00080BD00007047000070B588B040F2FC555A
:1012C000C2F2000501AE002132462B460446FFF76C
:1012D00011FD204631462A4603F0B6FA08B070BD2B
:1012E000704700007047000070470000B0B504462A
:1012F00090F8200001281DD1022084F820002068E9
:10130000016821F00101016000F040FB054600BFCB
:1013100020684068C00713D000F038FB401B0B2842
:10132000F6D3606A40F400306062052084F8200043
:101330000120B0BD606A40F4002060620120B0BDB1
:1013400000206062B0BD00007047000070470000E0
:1013500070470000704700007047000070470000B1
:101360007047000070B5866D044600F00FFB94F8DE
:101370003510022928D105462068216C026822F028
:1013800016020260426922F08002426109B9A16C32
:1013900019B1016821F008010160016821F0010123
:1013A000016000BF20680068C00715D000F0EEFAA9
:1013B000401B0628F6D320206065032084F8350002
:1013C000002184F8341070BD802060650120002168
:1013D00084F8341070BD00BFE06D3F2101FA00F0C9
:1013E000B060012084F835000020002184F834101A
:1013F00070BD000090F83510022909D1052180F850
:1014000035100068016821F001010160002070477B
:101410008021416501207047F0B581B0044600206D
:10142000009040F20800C2F200000268D4E91660A1
:1014300048F2B51337680821C1F64E33814039426E
:10144000A2FB03250CD0226813685B0708D513683C
:1014500023F004031360B160616D41F00101616527
:1014600001218140394208D022685269120604D510
:10147000B160616D41F00201616504218140394232
:1014800008D022681268920704D5B160616D41F0FE
:101490000401616510218140394217D0206802683B
:1014A000120713D5B16002680168520308D4C90558
:1014B00008D4016821F008010160216C21B905E020
:1014C00008033FD4216C09B120468847E16D2020F4
:1014D00000FA01F23A4241D020680368DB063DD5AC
:1014E000B26094F835300268052B1BD122F0160249
:1014F0000260426922F080024261226C0AB9A26C49
:101500001AB1026822F0080202603F208840B060F1
:10151000012084F83500216D0020002984F8340072
:1015200052D157E00168520310D4C90512D40168A2
:1015300021F010010160012084F83500002084F8BA
:10154000340007E0A16C0029BED1BFE7080301D435
:10155000616C00E0E16B09B120468847606DC8B35B
:10156000606DC0072ED0052084F835002068A90AD8
:10157000026822F001020260009A01328A4200925F
:101580001AD80268D20717D0009A01328A42009214
:1015900012D80268D2070FD0009A01328A42009214
:1015A0000AD80268D20707D0009A01328A42009214
:1015B00002D80268D207DFD1012084F8350000206C
:1015C00084F83400E16C29B1204601B0BDE8F04058
:1015D000084700BF01B0F0BD2DE9F041044600F01E
:1015E000D5F9ECB10546022084F8350000202168C9
:1015F00084F83400086820F0010008602168086859
:10160000C00711D000F0C2F9401B0528F6D9032508
:1016100020230320636584F83550BDE8F08100BFC6
:101620000120BDE8F08100BF086848F23F02CFF218
:101630001002D4E9013500EA020C04F10C0898E824
:10164000C10143EA0C032B431843D4E9072E30436E
:1016500038431043626A40EA0E00042A40EA080355
:101660001CD1206BD4E90A2E40EA0E001843086012
:101670004869BEF1000F20F0030040EA020040F08C
:10168000040C11D0B8F5005F36D0B8F1000F45D189
:10169000022A46D0012A3BD032B942E00B604869A9
:1016A00020F0070040EA020C01F0F8004AF6AB22F5
:1016B0001038CAF6AA22A0FB02231A0945F27E338B
:1016C000C1F814C0C0F600039A5C40F2FF335F28F3
:1016D0004FF03F0021EA030100FA02F088BF043115
:1016E000C4E916128860002301250020636584F890
:1016F0003550BDE8F08100BF032AD5D8012540232D
:101700000120DFE802F0030E030500BF82E700BFFF
:10171000AEF1C070B0FA80F0400904E0032A04D3AF
:10172000C2D1CEF300600028BED0012540230120A5
:10173000636584F83550BDE8F081000090F834C04E
:10174000BCF1010F04BF0220704770B54FF0010CCF
:1017500080F834C0D0F858E090F835C0BCF1010FE3
:1017600038D14FF0020C80F835C04FF0000CC0F8B3
:1017700054C0D0F800C08468056CC06DDCF800600F
:10178000402C26F48026CCF80060CCF804300B46C0
:1017900004BF13460A463F2101FA00F0CCF8083096
:1017A000CCF80C20CEF80800DCF8000040F0160061
:1017B000CCF800002DB1DCF8000040F00800CCF8B7
:1017C0000000DCF8000040F00100CCF80000002030
:1017D00070BD00BF002180F83410022070BD0000F1
:1017E0002DE9F04F82B000F13E4707F1FF77860503
:1017F00046EA972741F60046C4F20206082243F65D
:10180000004EB04208BF0722C4F2010E072F38BFB6
:101810003A46002600274FF00008009209E000BF7A
:1018200008F101080237B8F1100F06F1040600F0C4
:10183000A3800D68012202FA08F415EA0409EFD02A
:10184000D1F804B003220BF0030CACF10105BA404F
:10185000012D6FEA020A0FD88268CD6802EA0A02F7
:10186000BD402A4382604268A243CBF3001404FACD
:1018700008F42243426005E0BCF1030F02D14FF0AF
:10188000030C1EE0C2688C6802EA0A02BC402243D4
:10189000BCF1020FC26014D16FF0030202EA5802D9
:1018A0000244D2F820C006F01C040F230D69A340A7
:1018B0002CEA0303A5402B431362D1F804B00BF0CC
:1018C000030C02680CFA07F302EA0A021A431BF43B
:1018D000403F0260A4D0002243F644030192C4F2C8
:1018E00002031A684FF6084C42F480421A601A68E4
:1018F000CFF6FF7C02F480420192019A28F00302A5
:10190000724452F80C3006F00C050F24AC40A3438F
:10191000009C04FA05F52B4342F80C30DEF8082051
:101920004B6842EA090543F60C4CDC0258BF22EA38
:101930000905CEF80850C4F2010CDCF800209C0226
:1019400042EA090558BF22EA0905CCF80050DEF842
:1019500004209C0342EA090558BF22EA0905CEF893
:101960000450DEF80020DB0342EA090558BF22EAF2
:101970000905CEF8005053E702B0BDE8F08F000033
:10198000002A08BF090481617047000040F2A4608A
:10199000C2F200000068704740F2000040F2A4610B
:1019A000C2F20000C2F2000100780A681044086028
:1019B0007047000080B543F60040C4F202000168A1
:1019C00041F400710160016841F4806101600168C7
:1019D00041F480710160032000F09CF8002000F0C9
:1019E00005F800F027F8002080BD000070B540F237
:1019F0000006C2F2000640F208013278C2F200018D
:101A00004FF47A730968B3FBF2F20446B1FBF2F1CA
:101A1000084600F023FC0F2C4FF0010508D838B918
:101A20004FF0FF3021460022002500F047F8746097
:101A3000284670BD82B0002043F640010190C4F2F8
:101A400002014A6842F480424A604A6802F48042D5
:101A50000192019A0090086840F080500860086880
:101A600000F080500090009802B07047002848BFF6
:101A7000704700F01F01012202FA01F11C2202EA64
:101A8000D0004EF28012CEF200028150BFF34F8F91
:101A9000BFF36F8F70470000002848BF704700F009
:101AA0001F01012202FA01F11C2202EAD0004EF2CB
:101AB0000012CEF2000281507047000010B54EF6C1
:101AC0000C5CCEF2000CDCF80030C3F3022E8EF07A
:101AD0000704042C28BF0424BEF103034FF0FF3E8B
:101AE0000EFA04F438BF0023A14399400EFA03F321
:101AF0009A43114300F00F0200F160430901043AD8
:101B000003F564436244002848BF02F10C031970D6
:101B100010BD00004EF60C51CEF200010A684FF6DF
:101B2000FF031A4060F30A2242F0806040F0FD702B
:101B300008607047002804BF012070472DE9F0417C
:101B400043F60808C4F202080446D8F8F8030D4624
:101B500000F00700884207D288F8F853D8F8F80355
:101B600000F00700A84277D12068810717D5410708
:101B700005D5D8F8001041F4E051C8F8001001076D
:101B800005D5D8F8001041F46041C8F80010D8F825
:101B90000010A26821F0F0011143C8F80010C0073E
:101BA00040D1D8F8F80300F00700A84207D988F818
:101BB000F853D8F8F80300F00700A8424CD1206889
:101BC000410707D5D8F80010E26821F4E05111432D
:101BD000C8F80010000708D5D8F80000216920F4E3
:101BE000604040EAC100C8F8000000F07DF8D8F875
:101BF000001045F26632C1F30311C0F60002515CD9
:101C000040F2080220FA01F140F20400C2F20000A2
:101C10000068C2F200021160FFF7E8FE0020BDE894
:101C2000F08100BF6068811E022907D258F8081CA5
:101C300089015CBF0120BDE8F08111E0012807D1D6
:101C400058F8081C89035CBF0120BDE8F08107E05B
:101C500058F8081C890703D40120BDE8F08100BFB3
:101C6000D8F8001021F003010843C8F80000FFF77E
:101C70008DFE064641F28837D8F80000616800F012
:101C80000C00B0EB810F8CD0FFF780FE801BB842B8
:101C9000F2D90320BDE8F08140F2080043F60801C4
:101CA000C2F20000C4F202010068096845F276320F
:101CB000C1F38221C0F60002515CC84070470000A9
:101CC00040F2080043F60801C2F20000C4F202012B
:101CD0000068096845F27632C1F34231C0F600026D
:101CE000515CC8407047000010B543F60404C4F2CC
:101CF0000204606800F00C0008280BD0042819BF0B
:101D000042F20040C0F2F40041F60030C0F2B700E9
:101D100010BD00BF206821682368490241F60031E8
:101D2000C0F2B70100F03F02C3F388105CBF42F27B
:101D30000041C0F2F401A1FB00010023FEF7ACFA60
:101D400021680222C1F3014102EB4101B0FBF1F035
:101D500010BD0000002804BF012070472DE9F041AC
:101D600082B00446007843F60006C007C4F20206BB
:101D70000CD0B06800F00C00042840F0818030687E
:101D8000800303D56068002800F06A81207880070E
:101D90001BD5B06810F00C0F09D0B06800F00C0033
:101DA000082840F087807068400200F18380306826
:101DB000800703D5E068012840F05281306821692E
:101DC00020F0F80040EAC10030602078000713D40A
:101DD000207840072AD4A569002D00F03C81B06826
:101DE00000F00C00082840F0A180012D40F0108187
:101DF000012002B0BDE8F0816069002840F20000D7
:101E0000C4F2472000F07E800121C0F8801EFFF759
:101E1000BDFD0546706F8007DAD4FFF7B7FD401BA4
:101E20000228F7D9032002B0BDE8F081306C5FEAE8
:101E3000C0080AD400200190306C40F0805030641B
:101E4000306C00F080500190019847F20007C4F216
:101E500000073868C00547D4386840F4807038609F
:101E6000FFF794FD054600BF3868C0053CD4FFF776
:101E70008DFD401B0228F7D9032002B0BDE8F08198
:101E8000B06800F00C00082803D1706840023FF5EC
:101E900076AF6068B0F5803F07D0B0F5A02F40F076
:101EA0009B80306840F480203060306840F480309F
:101EB00030609BE0E06800285CD00020C4F247203E
:101EC00001210160FFF762FD054600BF3068800711
:101ED0003FF574AFFFF75AFD401B0228F6D90320E7
:101EE00002B0BDE8F08100BFA068012805D0052838
:101EF00054D1306F40F004003067306F40F0010083
:101F0000306755E00021C0F8801EFFF73FFD054611
:101F1000706F80077FF55CAFFFF738FD401B02282C
:101F2000F6D9032002B0BDE8F08100BF0027C4F25B
:101F3000472700203866FFF729FD022D05460DD101
:101F40003068800140F19080FFF720FD401B02289F
:101F50004FF00300F4D902B0BDE8F0813068800191
:101F600079D5FFF713FD401B02284FF00300F5D988
:101F7000F1E700BF0020C4F2472000210160FFF715
:101F800005FD0546306880077FF51FAFFFF7FEFCB3
:101F9000401B02284FF00300F4D9DCE7316F002822
:101FA00021F001013167316F21F0040131677DD0EB
:101FB000FFF7ECFC054641F2883700BF306F800721
:101FC00000F18680FFF7E2FC401BB842F6D90320FF
:101FD00002B0BDE8F08100BF3168002821F48031F3
:101FE0003160316821F4802131607BD0FFF7CEFC75
:101FF000054600BF306880033FF5C8AEFFF7C6FC5A
:10200000401B6428F6D9032002B0BDE8F08100BF70
:102010007068E16900F480028A4221D1216A00F0EF
:102020003F028A421CD147F6C071626A0140B1EB9F
:10203000821F15D1A16A4FF6FF73C903994300F4BB
:102040004032A1F580318A420AD1E16A00F0706025
:10205000B0EB016F04D1002002B0BDE8F08100BFF9
:10206000012002B0BDE8F08104F11C052FCD08432A
:1020700040EA8210D9034FF6FF729143A1F58031F7
:1020800040EA05600843706001203866FFF77EFC77
:10209000044600BF30688001DDD4FFF777FC001BE9
:1020A00002284FF00300F5D955E700BFFFF76EFC9B
:1020B000054641F2883700BF306F800708D5FFF72B
:1020C00065FC401BB8424FF00300F5D943E700BF61
:1020D000B8F1000F3FF57FAE306C20F080503064D7
:1020E00079E600BFFFF752FC054600BF3068800369
:1020F0007FF54CAEFFF74AFC401B64284FF003000D
:10210000F4D928E770B538B10446406A30B10020F0
:10211000206104F1140007E0012070BD6068B0F593
:10212000827F03D004F11C00002101600026A6621A
:1021300094F8510020B9204684F8506000F03CF833
:10214000022084F8510094E80F0001F482710568C0
:1021500002F4044225F040050560114403F40062D6
:102160002369114403F002026369114403F0010280
:10217000A369E569114403F40072114405F03802C3
:10218000256A114405F08002A56A114305F4005246
:1021900011430160626A042101EA134102F0100256
:1021A00011444160C16921F40061C161012066658B
:1021B00084F85100304670BD2DE9F04385B00068C9
:1021C00043F20005C4F20105A84203D005B0BDE802
:1021D000F08300BF002643F630000096C4F20200F0
:1021E00041696C4641F48051416141694FF00208F8
:1021F00001F4805100910099009601684FF00309A5
:1022000041F0020101600168052701F0020100911F
:1022100000990096016841F00101016000682146C3
:1022200000F00100009000981820009005F554403F
:10223000CDE90186CDF80C900497FFF7D1FA802004
:10224000CDE9000805F550402146CDE90269049723
:10225000FFF7C6FA05B0BDE8F0830000411E00207C
:10226000B0EB116F1CBF012070474EF21002CEF28E
:10227000000251604EF62351CEF20001F0230B70A4
:1022800007219060116070477047000070470000A0
:1022900090F83C20012A04BF02207047B0B501F13C
:1022A00008053CCDD1E900CE23F47C5322F47052D2
:1022B0001A432EF4F0431A432CF4E0431A4324F457
:1022C000C0431A432A43C96922F480420368114378
:1022D0005964002180F83C10BDE8B04008467047C2
:1022E00090F83C20012A4FF0020254D010B580F83B
:1022F0003D200268D2F804E0D2F808C00C682EF045
:102300007003234341F2FF74C4F20004A2425360FD
:102310000EDC40F2FF73C4F200039A4216DCB2F105
:10232000804F2BD040F20043C4F2000324E000BFF2
:1023300040F2FF33C4F201039A4213DC41F600037A
:10234000C4F200039A4219D0002313E040F60003C0
:10235000C4F200039A4211D040F60043C4F20003D5
:102360000AE000BF44F20003C4F201039A4205D020
:1023700040F20043C4F201039A4204D149682CF0B0
:102380008003194391600121002280F83D1080F8FC
:102390003C20BDE81040104670470000002804BFF4
:1023A0000120704710B5044690F83D0028B9002080
:1023B00084F83C00204600F01FF8022084F83D001D
:1023C0002068211D01F0CEFE012084F8460084F82B
:1023D0003E0084F83F0084F8400084F8410084F80F
:1023E000420084F8430084F8440084F8450084F8EF
:1023F0003D00002010BD000080B582B0006840F6AE
:10240000FF71C4F2000188421ADC40F60001C4F2F8
:10241000000188423AD040F60041C4F200018842EF
:1024200043D10020019043F64000C4F2020001684D
:1024300041F008010160006800F0080033E000BFCF
:1024400041F20001C4F20001884231D00021C4F2FF
:102450000101884229D10020019043F64000C4F2D6
:1024600002004168002241F0010141604068002102
:1024700000F00100019001981920FFF71FFB1920BF
:1024800002B0BDE88040FFF707BB00BF002001900D
:1024900043F64000C4F20200016841F0040101600B
:1024A000006800F004000190019802B080BD00BFF8
:1024B0000020019043F64000C4F2020001680022AF
:1024C00041F0100101600068002100F0100001904F
:1024D00001983620FFF7F2FA362002B0BDE88040BE
:1024E000FFF7DABA90F83D1001291CBF01207047B0
:1024F000022180F83D10006841F2FF72C168C4F209
:102500000002904241F00101C1600DDC40F2FF7118
:10251000C4F20001884215DCB0F1804F2AD040F2AD
:102520000041C4F2000123E040F2FF31C4F2010196
:10253000884213DC41F60001C4F20001884219D040
:10254000002113E040F60001C4F20001884211D0DE
:1025500040F60041C4F200010AE000BF44F200016D
:10256000C4F20101884205D040F20041C4F20101E9
:10257000884206D1816801F00701062904BF0020C6
:102580007047016841F001010160002070470000C0
:1025900090F83C20012A4FF0020200F0C58080B57F
:1025A00080F83D20D0F800C04FF67772DCF8083094
:1025B00023EA0202CCF808200B684F2B28DC1F2BE3
:1025C00044DD202B45D0302B43D0402B40F0AE8053
:1025D000D1F804E0C968DCF82030DCF8202022F0D3
:1025E0000102CCF82020DCF8182022F0F00242EAA8
:1025F000011123F00A0242EA0E02CCF81810CCF8BE
:102600002020DCF8081041F0470121F0300180E083
:102610006F2B27DDB3F5005F48D0B3F5805F7AD02C
:10262000702B40F08380D1E901E3C968DCF8082011
:1026300043EA0E0322F47F4243EA01211143CCF81E
:102640000810DCF8081041F0770162E00BB1102BA4
:102650006CD1DCF8081021F07001194341F007013A
:1026600057E000BF502B35D0602B5FD1D1F804E08C
:10267000C968DCF8203023F01003CCF82030DCF8F7
:102680001830DCF8202023F4704322F0A00243EA43
:10269000013142EA0E12CCF81810CCF82020DCF8F8
:1026A000081041F0670121F0100132E0D1E901E3A7
:1026B000C968DCF8082043EA0E0322F47F4243EAAB
:1026C00001211143CCF80810DCF8081041F48041D6
:1026D0001FE000BFD1F804E0C968DCF82030DCF866
:1026E000202022F00102CCF82020DCF8182022F073
:1026F000F00242EA011123F00A0242EA0E02CCF88B
:102700001810CCF82020DCF8081041F0570121F017
:102710002001CCF808100022012180F83D10002192
:1027200080F83C10BDE88040104670470122F3E776
:102730007047000010B5016804460869800744BF6F
:10274000C8685FEA807039D40869400744BFC86828
:102750005FEA40703ED40869000744BFC8685FEA7A
:10276000007045D40869C00644BFC8685FEAC0600D
:102770004AD40869C0071CBFC8685FEAC07051D15D
:102780000869000644BFC8685FEA006052D408695F
:10279000400644BFC8685FEA406053D408698006B9
:1027A00046BFC8685FEA806010BD6FF02002204617
:1027B0000A61BDE81040FFF769BD00BF6FF002007D
:1027C0000861012020778869800743D02046FFF701
:1027D000AFFF45E06FF004000861022020778869B0
:1027E00010F4407F40D02046FFF7A2FF42E000BF38
:1027F0006FF00800086104202077C86980073DD089
:102800002046FFF795FF3FE06FF0100008610820B9
:102810002077C86910F4407F3AD02046FFF788FF40
:102820003CE000BF6FF001000861204600F080F935
:102830002168A5E76FF0800008612046FFF724FDBE
:102840002168A4E76FF040000861204600F084F999
:102850002168A3E7204600F025F8204600F066F93D
:102860002168002020776FE7204600F01BF8204603
:1028700000F05CF92168002020776CE7204600F02A
:1028800011F8204600F052F921680020207769E70E
:10289000204600F007F8204600F048F921680020A3
:1028A000207766E77047000090F83C30012B04BFAA
:1028B000022070474FEAB202032A00F201812DE99B
:1028C000F043DFE802F0033F7FBF00BF036840F240
:1028D00000461A6A43F4806522F001021A621C6AFB
:1028E0001A46D3F804C052F818EF8F6824F0020497
:1028F000C4F20106B54244EA070405D1CF6824F0CA
:102900000C0427F004073C430F68B54206D1D1E917
:1029100005582CF440762E4346EA080C2EF0730638
:102920003743C3F804C09F614F6809695F631C6245
:102930009F6947F008079F619F6927F004079F611F
:10294000B2E000BF036840F200481A6A43F48065B1
:1029500022F010021A621C6A1A46D3F804C052F818
:1029600018EF8F6824F02004C4F20108454544EABA
:10297000071407D1CF686FF0400624F0C00406EAC0
:1029800007163443D1F80090454506D1D1E90556E4
:102990002CF440672E4347EA860C2EF4E64747EABC
:1029A0000927C3F804C09F614F6809699F631C62CF
:1029B0009F6947F400679F619F6927F480679F6163
:1029C00071E000BF036840F200481A6A43F4806572
:1029D00022F480721A621C6A1A46D3F804C052F8B4
:1029E0001CEF8F6824F40074C4F20108454544EAE2
:1029F000072408D1CF6840F2FF463F0224F4406428
:102A000027EA06063443D1F80090454506D1D1E9BE
:102A100005562CF440572E4347EA061C2EF0730748
:102A200047EA0907C3F804C0DF614F680969DF633B
:102A30001C62DF6947F00807DF61DF6927F00407E0
:102A4000DF6131E0036840F200451A6A43F48067B1
:102A500022F480521A621A46D3F820C05C6852F8F9
:102A60001CEFD1F800808E68C4F20105AF4204D19A
:102A70004D6924F4804444EA85142CF4005747EA55
:102A800006372EF4E64646EA08265C60DE614E68AC
:102A900009691E641F62DF6947F40067DF61DF694F
:102AA00027F48067DF610902136819431160002170
:102AB000BDE8F043002280F83C200846704700BF84
:102AC0000121002280F83C2008467047002804BFFE
:102AD0000120704710B5044690F83D0028B9002049
:102AE00084F83C00204600F01FF8022084F83D00E6
:102AF0002068211D01F036FB012084F8460084F88F
:102B00003E0084F83F0084F8400084F8410084F8D7
:102B1000420084F8430084F8440084F8450084F8B7
:102B20003D00002010BD000070470000704700000D
:102B300040F2E841C2F2000100680968884218BF0B
:102B4000704780B53620FEF791FF01F059FE362020
:102B5000BDE88040FEF7A0BF7047000070B582B0AE
:102B6000044690F83E0020280ED113460A4600295C
:102B70004FF0010018BF002B02D102B070BD00BFA2
:102B800094F83C00012803D1022002B070BD00BFC0
:102B9000012084F83C00206300262220A262A38545
:102BA000266484F83E00A06B44F2294C44F285551B
:102BB0002168C0F6000CC0F60005C0E90FC544F25C
:102BC000AD25C0F600050431C0E91356FEF7B6FD89
:102BD0000196206801680191406801900198206980
:102BE00084F83C6030B300BF206850E8030F2168D0
:102BF00040F4807041E80302E2B1206850E8030F1E
:102C0000216840F4807041E803029AB1206850E8DE
:102C1000030F216840F4807041E8030252B120683C
:102C200050E8030F216840F4807041E80302002A55
:102C3000DAD100BF206850E8050F216840F001009C
:102C400041E80502E2B1206850E8050F216840F034
:102C5000010041E805029AB1206850E8050F21689B
:102C600040F0010041E8050252B1206850E8050F2C
:102C7000216840F0010041E80502002ADAD100BFD6
:102C8000206850E8050F216840F0400041E8050247
:102C9000DAB1206850E8050F216840F0400041E8B3
:102CA000050292B1206850E8050F216840F040000D
:102CB00041E805024AB1206850E8050F216840F05C
:102CC000400041E80502002ADAD1206B01282FD10B
:102CD00000200090206801680091406800900098F2
:102CE000206850E8030F216840F0100041E803021B
:102CF00012B3206850E8030F216840F0100041E84B
:102D00000302CAB1206850E8030F216840F01000A8
:102D100041E8030282B1206850E8030F216840F0C7
:102D2000100041E80302002A4FF00000D8D124E748
:102D3000012002B070BD00BF002002B070BD0000D5
:102D4000006844F60001C4F20001884218BF7047D1
:102D500080B540F2745040F20411C2F20000C2F299
:102D600000011222FFF7FAFEBDE8804001F046B9EB
:102D700001F044B9B0B582B0044600680168C36888
:102D8000426901F02F05202D03F0200506D12DB159
:102D9000204602B0BDE8B04001F0FEBB5FEA017C16
:102DA0001EBF02F0010E03F4907212EB0E0243D12B
:102DB000226BCD0618D5012A16D113F0100213D0BC
:102DC00000210191016801914168019101994069D7
:102DD00040063BD4A08DE18DE28D002A18BF8842C9
:102DE00040F0EA8102B0B0BD0A0640F1DF8013F086
:102DF000800200F0DB8094F83D102129F2D1A16817
:102E0000B1F5805F03D12169002900F05982216A60
:102E10004A1C226209784160E18C01390A04E1848C
:102E2000E0D1C16821F08001C160C16841F040017A
:102E3000C16002B0B0BD00BFCA0718BF13F48072F2
:102E400040F0C8804A0700F1CB80D0E0A16B086851
:102E5000426893B2002BC5D0A08D8342C2D2E285D6
:102E6000C969B1F5807F00F09E80206850E8030FAB
:102E7000216820F4807041E80302DAB1206850E84C
:102E8000030F216820F4807041E8030292B12068AA
:102E900050E8030F216820F4807041E803024AB132
:102EA000206850E8030F216820F4807041E8030295
:102EB000002ADAD1206850E8050F216820F00100CF
:102EC00041E80502BAB3206850E8050F216820F0F8
:102ED000010041E8050272B3206850E8050F21683F
:102EE00020F0010041E805022AB3206850E8050FF0
:102EF000216820F0010041E80502002ADAD11AE039
:102F0000206850E8050F216820F0400041E80502E4
:102F1000DAB1206850E8050F216820F0400041E850
:102F2000050292B1206850E8050F216820F04000AA
:102F300041E805024AB1206850E8050F216820F0F9
:102F4000400041E80502002ADAD1202084F83E0042
:102F500000202063206850E8030F216820F0100053
:102F600041E80302DAB1206850E8030F216820F03D
:102F7000100041E8030292B1206850E8030F216875
:102F800020F0100041E803024AB1206850E8030F26
:102F9000216820F0100041E80302002ADAD1A06B7A
:102FA000FEF7E0F9A08DE18D401A7CE149067FF53E
:102FB00019AF13F040013FF415AFC16821F0400193
:102FC000C1602021204684F83D1002B0BDE8B04029
:102FD00000F016BB226C42F0010222644A0706D5BB
:102FE000BEF1000F03D0226C42F0020222648A0775
:102FF00006D5BEF1000F03D0226C42F00402226419
:10300000BCF1000F06D55EEA050203D0226C42F047
:1030100008022264226C002A3FF4E4AE890604D53B
:103020001DB1204601F0B8FA20684069216C00F01B
:10303000400001F00801401800F0B680206850E818
:10304000030F216820F4907041E80302BAB32068AE
:1030500050E8030F216820F4907041E8030272B336
:10306000206850E8030F216820F4907041E80302C3
:103070002AB3206850E8030F216820F4907041E8DB
:103080000302002ADAD11AE0206850E8050F21680F
:1030900020F0010041E80502DAB1206850E8050F90
:1030A000216820F0010041E8050292B1206850E853
:1030B000050F216820F0010041E805024AB12068AF
:1030C00050E8050F216820F0010041E80502002AC0
:1030D000DAD1206B012824D1206850E8030F216841
:1030E00020F0100041E80302DAB1206850E8030F35
:1030F000216820F0100041E8030292B1206850E8F6
:10310000030F216820F0100041E803024AB1206853
:1031100050E8030F216820F0100041E80302002A64
:10312000DAD1202084F83E00002020632068406926
:10313000400640F1BF80206850E8050F216820F06C
:10314000400041E80502DAB1206850E8050F216827
:1031500020F0400041E8050292B1206850E8050FD8
:10316000216820F0400041E805024AB1206850E89B
:10317000050F216820F0400041E80502002ADAD15D
:10318000A06B002800F0968044F2A121C0F6000157
:103190000165FEF72FF900283FF424AEA06B016D06
:1031A00002B0BDE8B04008472046FFF7E1FD00202F
:1031B000206402B0B0BD00BF401A00BF216851E8D2
:1031C000031F226821F4907142E80313BBB3216806
:1031D00051E8031F226821F4907142E8031373B38E
:1031E000216851E8031F226821F4907142E803131B
:1031F0002BB3216851E8031F226821F4907142E843
:103200000313002BDAD11AE0216851E8051F226868
:1032100021F0010142E80513DBB1216851E8051FE7
:10322000226821F0010142E8051393B1216851E8B9
:10323000051F226821F0010142E805134BB1216806
:1032400051E8051F226821F0010142E80513002B17
:10325000DAD1202184F83E1000212163216851E851
:10326000031F226821F0100142E80313DBB121683B
:1032700051E8031F226821F0100142E8031393B1C3
:10328000216851E8031F226821F0100142E803136E
:103290004BB1216851E8031F226821F0100142E878
:1032A0000313002BDAD181B2204602B0BDE8B04052
:1032B000FFF746BD204602B0BDE8B040FFF758BD5D
:1032C000216A31F8022B6FF35F2242602162A3E58D
:1032D000002804BF0120704710B5044690F83D0057
:1032E00028B9002084F83C00204600F021F8242072
:1032F00084F83D002068C16821F40051C160204677
:1033000001F0CAF92068016921F490410161416925
:1033100021F02A014161C16841F40051C1600020DF
:103320002021206484F83D1084F83E1010BD000078
:103330002DE9F04F87B00446006844F60001C4F25E
:10334000000100268842CDE90566CDE903660296B4
:1033500000F0928041F20041C4F20101884200F085
:10336000E18041F20001C4F20101884240F0418154
:10337000002743F630000197C4F20200416900259E
:1033800041F0100141614169C4F2020501F01001F0
:10339000019101990197016802AE41F002010160BB
:1033A00001684FF0020901F00201019101990197B2
:1033B00001684FF0010A41F00101016000684FF01F
:1033C000030B00F0010001900198802002904FF063
:1033D000070805F580603146CDF80C90CDF810A0B7
:1033E000CDF814B0CDF81880FEF7FAF94FF400705C
:1033F00002A981E8010ECDF8188046F22808284677
:103400003146C4F20208FEF7EBF940F2D81508F590
:103410008360C2F200054FF000664FF4806985E8D2
:10342000C1002846C5E90379C5E90577C5E90777ED
:103430006F62FEF7D1F8002818BFFDF785F8A56385
:10344000AC6340F2382508F59260C2F200054021D5
:10345000C5E9000605F1080080E882022846C5E9B2
:103460000577C5E907776F62FEF7B6F8002818BF41
:10347000FDF76AF86563BBE043F630000196C4F2DD
:103480000200016941F480210161016901F4802198
:10349000019101990196016841F004010160006801
:1034A00002A900F00400019001984FF440600290DE
:1034B000022003900120049003200590072006902D
:1034C0000020C4F2020000F50060FEF789F940F226
:1034D000982546F22800C2F20005C4F202004FF01F
:1034E000006185E843004FF440304FF48062C5E945
:1034F00008062846C5E90362C5E90566EE61FEF7E0
:103500006BF8002818BFFDF71FF8272000210022C4
:10351000A563AC63FEF7D2FA2720FEF7BDFA07B029
:10352000BDE8F08F43F630000196C4F20200416915
:1035300046F2280841F0200141614169C4F20208C5
:1035400001F02001019101990196016841F04001CB
:103550000160006802A900F04000019001984FF45A
:1035600084400290022003900120049003200590E3
:10357000082006900020C4F2020000F5C050FEF7BB
:103580002FF940F2583508F58F60C2F200054FF070
:1035900020674021C5E9000705F108004FF4806964
:1035A00080E842022846C5E90566C5E907666E62FD
:1035B000FEF712F8002818BFFCF7C6FF6563AC637E
:1035C00040F2F82508F58060C2F20005C5E9000761
:1035D0002846C5E90266C5E90496C5E90666C5E957
:1035E0000866FDF7F9FF002818BFFCF7ADFFA563DB
:1035F000AC6307B0BDE8F08F704700007047000073
:1036000070470000FEE70000B4EE600AF1EE10FA29
:10361000B4EE410AD8BFB0EE600AF1EE10FAB8BFBE
:10362000B0EE401AB0EE410A70470000B0B58CB061
:1036300040F2401042F2002C0021C2F20000C4F21D
:10364000010C4FF4803301244FF080554FF000629D
:103650000B91CDE90611CDE90411CDE90211CDE9B7
:103660000011047680F82010C0E90A25C46180F8B2
:103670003010C0E900C3C0E90211C0E90414FDF72D
:1036800061F9002818BFFCF75FFF02200A9040F2A2
:1036900040100825C2F2000008A9CDE90854FDF742
:1036A0000DF8002818BFFCF74FFF0120019004908F
:1036B0000020012102900790C0F20F01ADF8140024
:1036C000039040F240100691C2F200006946009556
:1036D000FCF740FF002818BFFCF736FF0CB0B0BD68
:1036E00080B540F2881046F20041C2F20000C4F2F8
:1036F00000010322002380E80E0000F10C014FF4CA
:10370000202C4FF4801E81E808504FF48071018313
:10371000C0F81A30FDF7ACFC002808BF80BDBDE83A
:103720008040FCF711BF000080B540F2B01046F6B3
:103730000001C2F20000C4F200010322002380E86D
:103740000E0000F10C014FF4202C4FF4801E81E894
:1037500008504FF480710183C0F81A30FDF788FCDF
:10376000002808BF80BDBDE88040FCF7EDBE00002A
:1037700080B582B0002043F630010190C4F202010E
:103780000A6842F480020A600A6802F48002019228
:10379000019A00900868002240F400100860086850
:1037A000002100F40010009000980C20FEF786F92C
:1037B0000C20FEF771F9392000210022FEF77EF976
:1037C0003920FEF769F93A2000210022FEF776F948
:1037D0003A20FEF761F9452000210022FEF76EF93C
:1037E0004520FEF759F9462000210022FEF766F930
:1037F000462002B0BDE88040FEF74EB92DE9F04FFB
:1038000087B0002443F630000294C4F2020001683D
:1038100040F2000B41F0020101600168C4F2020BAA
:1038200001F002010291029902940168012241F023
:103830004001016001684FF0010901F0400102916F
:1038400002990294016841F001010160016801F0F0
:103850000101029102990294016841F0080101609E
:10386000016801F00801029102990294016841F097
:1038700004010160016801F00401029102990294BF
:10388000016841F480710160016801F48071029166
:1038900002990294016841F080010160016801F021
:1038A0008001029102990294016841F020010160B7
:1038B000016801F02001029102990294016841F02F
:1038C000100101600068102100F0100002900298C1
:1038D0005846FEF755F80BF5806001210122019052
:1038E000FEF74EF8C02002AE029002254FF0030A08
:1038F0000BF500503146CDE903540594CDF818A0DE
:10390000FDF76EFF4FF480700BF50067CDE90205FF
:1039100038463146CDE904440695FDF761FF4FF086
:10392000400838463146CDE90285CDE90444CDF85A
:1039300018A0FDF755FF0BF5A0503146CDE90285E3
:10394000CDE90444CDF818A0FDF74AFF58463146AA
:10395000CDE90294CDF81090FDF742FF1020CDE99B
:10396000020958463146CDE90494FDF739FF019824
:103970003146CDE90299CDE90494FDF731FF07B056
:10398000BDE8F08F10B540F2B83043F20001C2F24A
:103990000000C4F201014FF4827200234FF0010CC9
:1039A0004FF4007E182480E80E000A21C0E903339A
:1039B000C0E905CEC461C0E90833C0E90A31FEF7A9
:1039C000A1FB002808BF10BDBDE81040FCF7BCBD3E
:1039D00070B59CB0002540F21040C4F201050021F2
:1039E000C2F20000A72244F61F631591CDE913111E
:1039F0001191CDE90F11CDE90D11CDE90B11CDE9F3
:103A00000911CDE90711CDE90511CDE90311CDE982
:103A10000111C0E90052C0E90213C0E9041181613B
:103A2000FEF7BCFC002818BFFCF78EFD4FF4805059
:103A3000129040F21040C2F2000012A9FEF7A8FD59
:103A4000002818BFFCF780FD40F21040C2F20000D1
:103A5000FFF73CF8002818BFFCF776FD40F2104055
:103A60000024C2F2000010A9CDE91044FEF738FC92
:103A7000002818BFFCF768FD602009904FF4FA6039
:103A8000CDE90A0440F21040C2F2000009A9002268
:103A9000CDE90C44CDE90E44FEF706FF002818BF1F
:103AA000FCF752FD40F21040C2F2000009A90422C6
:103AB000FEF7FAFE002818BFFCF746FD40F2104062
:103AC000C2F2000009A90822FEF7EEFE002818BF86
:103AD000FCF73AFD40F21040C2F2000009A90C22A6
:103AE000FEF7E2FE002818BFFCF72EFD40F210445E
:103AF0004FF40050C2F200040026069001A92046AF
:103B00000596CDE90366CDE901660896FEF7C0FB90
:103B1000002818BFFCF718FD206840F60001C4F229
:103B20000001884217961DD040F60041C4F2000102
:103B300088422DD0A84249D10020169043F630008B
:103B4000C4F20200016841F0100101600068012127
:103B500000F01000169016984FF4D440179005F519
:103B600088302AE00020169043F63000C4F20200AC
:103B7000016841F008010160006800F0080016903B
:103B800016984FF48040179005F5863014E000BF7A
:103B90000020169043F63000C4F20200016841F0A4
:103BA00080010160006800F08000169016984FF4C4
:103BB000E050179005F58E30022102221892002263
:103BC0001B9117A9CDE91922FDF70AFE1CB070BDA3
:103BD000B0B594B040F6000540F25840C4F200057C
:103BE0000021C2F2000045F207220D91CDE90B1130
:103BF0000991CDE90711CDE90511CDE90311CDE911
:103C00000111C0E90051C0E9021201618021816106
:103C1000FEF7C4FB002818BFFCF796FC4FF4805059
:103C20000A9040F25840C2F200000AA9FEF7B0FC28
:103C3000002818BFFCF788FC40F25840C2F2000090
:103C4000FEF744FF002818BFFCF77EFC40F2584006
:103C50000024C2F2000008A9CDE90844FEF740FBA9
:103C6000002818BFFCF770FC6020CDE90104039424
:103C7000059440F25844C2F2000401A920460822EB
:103C8000FEF712FE002818BFFCF75EFC206800213A
:103C9000A8420F9120D040F60041C4F200018842B2
:103CA0002ED00021C4F20101884247D100200E909D
:103CB00043F63000C4F20200016841F010010160D7
:103CC0000068012100F010000E900E984FF4D440CF
:103CD0000F9005F5023028E043F630000E91C4F253
:103CE0000200016841F008010160006800F008006E
:103CF0000E900E984FF480400F9005F5013013E0C0
:103D000000200E9043F63000C4F20200016841F03A
:103D100080010160006800F080000E900E984FF462
:103D2000E0500F9005F5053002210222109200228A
:103D300013910FA9CDE91122FDF752FD14B0B0BDCA
:103D4000B0B594B040F6004540F2A040C4F2000582
:103D50000021C2F2000063220D91CDE90B110991FF
:103D6000CDE90711CDE90511CDE90311CDE9011127
:103D7000C0E90051C0E9021201618161FEF70EFB4A
:103D8000002818BFFCF7E0FB4FF480500A9040F287
:103D9000A040C2F200000AA9FEF7FAFB002818BFF3
:103DA000FCF7D2FB40F2A040C2F20000FEF78EFE0C
:103DB000002818BFFCF7C8FB40F2A0400024C2F264
:103DC000000008A9CDE90844FEF78AFA002818BFC8
:103DD000FCF7BAFB6020CDE9010440F2A040C2F23A
:103DE000000001A9002203940594FEF75DFD002860
:103DF00018BFFCF7A9FB40F2A040C2F2000001A9E5
:103E00000422FEF751FD002818BFFCF79DFB40F28D
:103E1000A044C2F2000401A920460822FEF744FD96
:103E2000002818BFFCF790FB206840F60002C4F29F
:103E30000002002190420F911CD0A8422ED00021F8
:103E4000C4F20101884247D100200E9043F63000B1
:103E5000C4F20200016841F0100101600068012114
:103E600000F010000E900E984FF4D4400F9005F51E
:103E7000013028E043F630000E91C4F202000168E0
:103E800041F008010160006800F008000E900E98F3
:103E90004FF480400F9005F5003013E000200E90A5
:103EA00043F63000C4F20200016841F08001016075
:103EB000006800F080000E900E984FF4E0500F90D4
:103EC00005F50430022102221092002213910FA95D
:103ED000CDE91122FDF784FC14B0B0BD80B582B0ED
:103EE00040F2E84041F200020021C2F20000C4F2B8
:103EF0000002532340F2E73CCDE90011C0E9002362
:103F0000C0E9021C8161FEF749FA002818BFFCF7DE
:103F10001BFB40F2E840C2F200006946FEF7E0F900
:103F2000002818BFFCF710FB02B080BD80B540F23E
:103F3000305041F20001C2F20000C4F2010144F22B
:103F4000402200234FF00C0CC0F20F0280E80E005C
:103F5000C0E90333C0E905C3C361FFF7B9F900281D
:103F600008BF80BDBDE88040FCF7EEBA10B540F256
:103F7000745044F6000C48F2A062C2F20000C4F291
:103F8000000CC0F201024FF4805300214FF4806E08
:103F90000C24C0E900C2C0E90231C0E904E4C0E970
:103FA0000611FFF795F9002808BF10BDBDE81040C5
:103FB000FCF7CABA80B540F2B85041F20041C2F2F3
:103FC0000000C4F2010100234FF00C0C4FF4E13269
:103FD00080E80E00C0E90333C0E905C3C361FFF701
:103FE00077F9002808BF80BDBDE88040FCF7ACBA77
:103FF000FEE70000FEE700007047000040F20410FA
:10400000C2F20000027841784FF6004CCFF6FF7CF8
:1040100001F0070342EA0C0202EB032200EE102A31
:104020009FED411AB8EEC00A80EE010A80ED050A44
:10403000427883784CEAD20203F03F0302EB43124A
:1040400000EE102AB8EEC00A80EE010A80ED060AE2
:104050008278C37801799B0043EA921201F0010152
:1040600042EA0C0202EB812100EE101AB8EEC00AFF
:1040700080EE010A80ED070A017942794CEA51018C
:1040800002F00F0201EBC21100EE101AB8EEC00AE6
:1040900080EE010A9FED251A80ED080A4179C1F3EF
:1040A000011180F824104179890980F8251081795F
:1040B000C27941EA022109B200EE101AB8EEC00A34
:1040C00020EE010A10EE101A40F8261F10F81E1CF0
:1040D00010F81D2C41EA022109B200EE101AB8EEC8
:1040E000C00A20EE010A10EE101A416010F81C1CE4
:1040F00010F81B2C41EA022109B200EE101AB8EEAA
:10410000C00A20EE010A10EE101A816010F81A1C85
:10411000017310F8191C417310F8181C10F8172CB3
:1041200041EA0221C18170470000254400000038A7
:1041300070470000FDF730BC4EF68850CEF200000C
:10414000016841F4700101607047000040F21040C6
:10415000C2F20000FEF7EEBA40F2E840C2F2000000
:10416000FEF7E8BA10B540F6FF3E0368C4F2000E51
:1041700040F2004C7045C4F2010C27DCB0F1804FD6
:1041800031D040F20042C4F2000290422BD040F6FF
:104190000002C4F20002904225D041F6FF72C4F240
:1041A0000002904229DC70453CDCB0F1804F5FD0CA
:1041B00040F20042C4F20002904259D040F60002A0
:1041C000C4F20002904253D056E000BF40F60042D5
:1041D000C4F20002904206D0604504D00022C4F22E
:1041E00001029042D9D14A6823F07003134341F68B
:1041F000FF72C4F200029042D5DD43F6FF72C4F2B2
:104200000102904222DC42F20002C4F2000290421B
:104210002ED00022C4F20102904229D0604527D05E
:104220002AE000BF40F60042C4F2000290421FD0D4
:1042300041F60002C4F20002904219D041F6004259
:10424000C4F20002904213D016E000BF44F2000214
:10425000C4F2010290420BD044F60002C4F2010203
:10426000904205D044F20042C4F20102904203D1D0
:10427000CA6823F44073134323F080024B69D1F8DA
:1042800000E08C681A430260C46240F48062C0F8A7
:1042900028E0624504BF096901630121416110BD45
:1042A000806B0021C185C184FEF762BD806B01680F
:1042B0004A6990F83D30212B2DD112F080022AD08E
:1042C0000021C184016851E8031F026821F0C00188
:1042D00042E80313DBB1016851E8031F026821F0D3
:1042E000C00142E8031393B1016851E8031F02685B
:1042F00021F0C00142E803134BB1016851E8031FEC
:10430000026821F0C00142E80313002BDAD120211A
:1043100080F83D100168496990F83E20222A40F05B
:104320007D8011F0400179D00021C185016851E8FC
:10433000031F026821F4907142E80313BBB30168C4
:1043400051E8031F026821F4907142E8031373B32C
:10435000016851E8031F026821F4907142E80313D9
:104360002BB3016851E8031F026821F4907142E801
:104370000313002BDAD11AE0016851E8051F026827
:1043800021F0010142E80513DBB1016851E8051F86
:10439000026821F0010142E8051393B1016851E878
:1043A000051F026821F0010142E805134BB10168C5
:1043B00051E8051F026821F0010142E80513002BB6
:1043C000DAD1016B012924D1016851E8031F026889
:1043D00021F0100142E80313DBB1016851E8031F2B
:1043E000026821F0100142E8031393B1016851E81B
:1043F000031F026821F0100142E803134BB101686A
:1044000051E8031F026821F0100142E80313002B5A
:10441000DAD1202180F83E1000210163016C41F0C7
:1044200010010164FEF7A4BC0168806B0968C9052E
:1044300000F19F800021C185016851E8031F0268D7
:1044400021F4807142E80313E3B1016851E8031FCE
:10445000026821F4807142E803139BB1016851E8BE
:10446000031F026821F4807142E8031353B101680D
:1044700051E8031F026821F4807142E80313002B06
:10448000DAD100BF016851E8051F026821F001017F
:1044900042E80513BBB3016851E8051F026821F02B
:1044A000010142E8051373B3016851E8051F026872
:1044B00021F0010142E805132BB3016851E8051F03
:1044C000026821F0010142E80513002BDAD11AE05D
:1044D000016851E8051F026821F0400142E8051318
:1044E000DBB1016851E8051F026821F0400142E894
:1044F000051393B1016851E8051F026821F04001DE
:1045000042E805134BB1016851E8051F026821F02C
:10451000400142E80513002BDAD1202180F83E103B
:10452000016B012925D100BF016851E8031F026812
:1045300021F0100142E80313DBB1016851E8031FC9
:10454000026821F0100142E8031393B1016851E8B9
:10455000031F026821F0100142E803134BB1016808
:1045600051E8031F026821F0100142E80313002BF9
:10457000DAD1016B012918BFFFF73EB8818DFEF734
:10458000DFBB0000806B016B012918BFFFF736B855
:10459000818D4908FEF7D4BB81B090F83E102229E6
:1045A00021D183680246B3F5805F09D152F8281FF4
:1045B00052F8183C002B63D003685B680AE000BF28
:1045C00052F8281F13B90369002BF5D003685B6804
:1045D00003F07F030B70116801311160C18D013947
:1045E0000A04C18502D001B0704700BF0168CA68E3
:1045F00022F02002CA60CA6822F48072CA604A6946
:1046000022F001024A61202180F83E10016B01294D
:104610003ED10021016300BF016851E8031F026819
:1046200021F0100142E80313DBB1016851E8031FD8
:10463000026821F0100142E8031393B1016851E8C8
:10464000031F026821F0100142E803134BB1016817
:1046500051E8031F026821F0100142E80313002B08
:10466000DAD101680A68D20606D5002200920A68EB
:104670000092496800910099818D01B0FEF760BBFE
:10468000026852686FF35F2221F8022B8162A5E76E
:1046900001B0FEF7B1BF000010B504460068D4E9D0
:1046A00002C22369016921F4405111430161626929
:1046B00043EA0C01E3691143C268194349F20C63F0
:1046C0009A431143C1604169A26921F4407141F2EA
:1046D0000043114340F48062C4F201039A424161F5
:1046E00002D1FDF7EDFA01E0FDF7D6FAE169636862
:1046F0001922B1F5004FA0FB020123D15A00DB0FB4
:10470000FBF7CAFD48F21F51C5F2EB11A0FB0123D4
:104710005A094FF69C73C0F6FF7303F1805302FBF6
:104720000300322303EBC000A0FB01014FF4F8703B
:1047300000EA111000EB0210C1F342110844216895
:10474000886010BD9A009B0FFBF7A6FD48F21F5131
:10475000C5F2EB11A0FB01235A094FF69C73C0F67A
:10476000FF7302FB0300322303EB0010A0FB0101E7
:10477000F02000EA511000EB0210C1F3431108448D
:104780002168886010BD000040F27450C2F2000041
:10479000FEF7F0BAFEE70000B0B586B040F2700454
:1047A000C2F200049FED141ADFED141AB3EE040AEE
:1047B000F2EE040AB2EE002A204600F035F904F1C8
:1047C0003805284600F03AF9012000218DF817003D
:1047D000C4F210218DF80F0040F204600491C2F27F
:1047E00000000DF1170104AA0DF10F03CDE90054EB
:1047F00000F0F6F906B0B0BD0000000000007A44F9
:1048000080B540F21810C2F20000017C03290BD1E0
:10481000006800EE100A00F02BFB40F20460C2F2C8
:10482000000080ED040A05E040F20460C2F20000DE
:1048300000F006F940F20460C2F2000000F07EF9D8
:10484000BDE8804000F088B80868A0F5037010F15A
:104850000B0F38BF7047B0B540F20465C2F20005D7
:10486000E869DFED390A28621088144640BA00EE84
:10487000100AB8EEC00AFBF75DFE95ED081A9FED31
:10488000333A30EE412AB4EE432AF1EE10FA85EDC8
:10489000070A13DD95ED011A9FED2E2A95ED053AD5
:1048A00082EE012A33EE022AB5EE402AF1EE10FA2A
:1048B00085ED052A20DA9FED263A19E031EE404ACF
:1048C00095ED011A95ED052AB4EE434AF1EE10FA82
:1048D00012DD9FED1F3A83EE014A32EE042AB4EE58
:1048E000432AF1EE10FA85ED052A05DD9FED193A10
:1048F00032EE032A85ED052A80EE010A9FED143A77
:1049000030EE020A9FED132AB4EE430A30EE022A7B
:10491000F1EE10FAC8BFB0EE420A85ED060A6088D3
:10492000C0BA00EE100AB8EEC00A80EE010A85EDAA
:10493000090AA07900EE100AB8EE400A85ED0B0ACC
:10494000BDE8B040704700BF00000046000034439F
:104950000000B4430000B4C380B540F20460C2F26A
:104960000000408940F2E003C2F200034FEA102C3D
:1049700058714FF0000E08201946C3E906E04FF4C5
:1049800000701A4641F80C0F40F28810C3F806E098
:10499000A3F80AE0C3E904EE02F804CFC2F2000073
:1049A00083F820E0BDE88040FCF7D2B810B504469B
:1049B00094ED092A94ED031A80ED060A006A30EEA0
:1049C000600AC4ED070A84ED080A30EE020AF1EE2F
:1049D000410AA062FEF718FE94ED014A84ED090A2F
:1049E00094ED082A94ED003A20EE040A94ED0A4A68
:1049F00094ED025A94ED041A23EE023A34EE422A60
:104A000025EE022A84ED0C0A33EE000A30EE020A8B
:104A1000F1EE410A84ED0B3A84ED0D2AFEF7F4FD28
:104A200084ED050A10BD000010B50446A0EC050A8F
:104A30002421FBF7CBFC204610BD0000704700008E
:104A40002DE9F0478EB004460220207204F10A00DE
:104A50002621FBF799FC607AA0BB94ED011A94ED36
:104A60000D3A94ED0E4A94ED0C0AD4ED0F1A94ED24
:104A7000102AF1EE430AB5EE401AB1EE441A684628
:104A8000F1EE10FAC8BFF0EE430AC8BFB0EE441A08
:104A9000FFF7CAFF9DE80F500DF1180A9AE8E007EA
:104AA00020636163DDE90C01A26304F15002E3635A
:104AB000C4F840C0C4F844E0C4E9125682E8800754
:104AC000C4E9180194ED011A94ED1B3A94ED1C4AC7
:104AD00094ED1A0AD4ED1D1A94ED1E2AF1EE430A44
:104AE000B5EE401AB1EE441A6846F1EE10FAC8BFAE
:104AF000F0EE430AC8BFB0EE441AFFF795FF9DE8F9
:104B00008F000DF1240ADDE90565DDE907CE9AE89D
:104B10000007A066E166DDE90C0122676367A7670D
:104B2000C4E91F65C4F884C0C4E922E8C4E9249A32
:104B3000C4E926010EB0BDE8F087000010B52DEDE8
:104B4000048B0446007AA8B1012815D0022817D199
:104B500094ED010A94ED071A607AC1EE000AC4EDE3
:104B6000060A68B994ED030A04F13000FFF71EFF4E
:104B700004E000BF002020E09FED120A84ED040A4B
:104B8000207802281AD810A101EB800191ED008A4B
:104B900010A101EB800094ED040AD4ED090A90ED18
:104BA000009A04F16800FFF701FF80EE080A20EE8A
:104BB000090ABDEEC00A10EE100A6081BDEC048B3C
:104BC00010BD00BF00000000000020410000A04117
:104BD0000000C04100401C46000080460060EA46DC
:104BE0002DE9F04F81B02DED028B92B000F130062F
:104BF0000446DDF87CA03046984691460F46FFF704
:104C00001DFF04F168052846FFF718FF38782621B4
:104C1000207099ED008A022084ED018A207298F8B4
:104C2000007004F10A006772FBF7AEFB002F41D160
:104C30001E98B5EE408A90ED011A90ED023A90ED83
:104C4000000AD0ED031A90ED042AF1EE410AF1EECC
:104C500010FAC8BFF0EE410AB1EE431A04A8C8BF6B
:104C6000B0EE431AFFF7E0FEDDE90B800DF1180E00
:104C700002900D989EE88C50019006F1080080E8A3
:104C80008C50029ADDF83890DDE904B13262019A65
:104C9000CDF80C90DDF83C90C6E900B1DDE91001DB
:104CA0007262039A94ED018AC6F81C80C6E90A294B
:104CB000306371639AED011A9AED023A9AED000A97
:104CC000DAED031A9AED042AF1EE410AB5EE408AB4
:104CD000F1EE10FAC8BFF0EE410AB1EE431A04A893
:104CE000C8BFB0EE431AFFF79FFE04AF8FCF0DF1A0
:104CF000240E9EE840500DF1300B9BE8000F85E834
:104D00008F0005F1140080E84050DDE9100105F145
:104D1000200282E8000F28632046696312B0BDECD0
:104D2000028B01B0BDE8F08F10B58AB040F2881454
:104D300000200121C2F200040690CDE90000CDE977
:104D400002000490CDE90711059069462046FBF763
:104D50005FFF2046FCF7CAFA20460221FBF7E0FE7F
:104D60000AB010BD92B0FCF725FE002443F64000C7
:104D7000CDE90A44CDE908440594CDE90344CDE9E1
:104D800001440094C4F202000168022541F0805100
:104D90000160006800F08050009047F2000000942D
:104DA000C4F20000016841F480410160006800F431
:104DB00080400090012006904FF4803007904FF41F
:104DC00080000D9006200E90A820CDE90F0504204C
:104DD000119006A80C95FCF7BDFF28B1EFF31080E9
:104DE00072B600BFFEE700BF0F20CDE901054FF40A
:104DF000A05004904FF48050059001A80521039421
:104E0000FCF798FE20B1EFF3108072B6FEE700BF0A
:104E1000FEF7F4FCFEF7ACFCFEF708FCFEF760FCC6
:104E2000FEF782FCFEF7D4FDFEF7D2FEFEF788FF08
:104E3000FFF754F8FEF7A6FDFFF778F8FFF796F8AE
:104E4000FFF7B8F840F2E840C2F20000FDF74AFB75
:104E500040F2745040F20411C2F20000C2F20001AC
:104E60001222FDF77BFEFFF75FFF00BFFEE70000A9
:104E700080B5B3EE0E1A20EE010A10EE100A00F013
:104E8000EFF99FED050B53EC102B00F03BF800F011
:104E900007F800EE100A80BD182D4454FB2109408C
:104EA00021F0004201F00043A2F16052B2F5801FF0
:104EB00028BFD2F17F6C0BD95FEA001C43EAC20223
:104EC00042EB507018BF704728BF20F001007047B8
:104ED000B2F5801FBCBF184670474FEA410C1CF565
:104EE000001F02D2084600F039BA70B500F064F92C
:104EF00000000089FFF7F6BF4FF00040A0F58000EA
:104F0000704700002DE9C04130B4DFF8A4C23CEA8C
:104F1000111418BF3CEA131400F0ED801CEA1114C0
:104F200081EA030544EAD57418BF1CEA131500F0A2
:104F3000C880A4EB050404F17F7404F500344FF03D
:104F4000004545EAC12145EAC32341EA505143EAFD
:104F500052534FEAC0204FEAC222994208BF904202
:104F600000F09D804FEA13650FF24416765D4FEA1C
:104F7000134506FB05F7C7F1807706FB07F74FEAF5
:104F8000D737A7FB03687642A7FB06CEC8F5803863
:104F900038BFA8F1010807FB08E6A6FB028C4FF01A
:104FA000000EE6FB03CEDCF1000CCEF1004E38BF64
:104FB000AEF1010EA6FB0C584FF00007E6FB0E8782
:104FC000A1FB08C6A0FB07CE16EB0E064FF00005AE
:104FD00045F10005E1FB076515F1E04E7EBFA4F544
:104FE00080345FEA46066D4116F1800745F1000501
:104FF0004FEA172747EA05674FEA15254FEA066685
:10500000A6F1DE46B6F1805F20D9384605EBC471C3
:1050100024F0010C01EB0C11BCF1FE6F02D8F0BCC6
:10502000BDE8008124425CBF01F5801E9EEAC47F7A
:1050300002D4F0BCBDE80081244200F13980A1F126
:10504000C041F0BCBDE8004100F004B94FEAD020F7
:1050500040EA41504FEAD1214FEAD22242EA43527C
:105060004FEAD323A7FB028607FB036605FB026614
:105070001EEA0E0F58BFA6EB0056B6EB00564FEADD
:10508000520E4EEAC37E18EB0E0E56EB530EBCD5F5
:1050900018EB02085E417F1C55F10005B5E74FF49F
:1050A00080154FF000074FF000064FF00008ACE706
:1050B00001F1C04101F000414FF00000F0BCBDE83B
:1050C00000810CEA131511EA0C1F00D00CE013EA62
:1050D0000C1F00F026804FF0000081EA030101F070
:1050E0000041F0BCBDE80081F0BCBDE8004181EAB0
:1050F000030100F0AFB8F0BCBDE8004170B500F0AE
:105100005BF800BF097EFC3E00F007B84FF00000DE
:1051100081EA030101F00041704781EA030100F0D8
:1051200099B8F0BCBDE8004122494FF0000070473B
:10513000FFFDFBF9F7F5F4F2F0EEEDEBE9E8E6E45C
:10514000E3E1E0DEDDDBDAD8D7D5D4D3D1D0CFCDE3
:10515000CCCBCAC8C7C6C5C4C2C1C0BFBEBDBCBB1C
:10516000BAB9B8B7B6B5B4B3B2B1B0AFAEADACAB17
:10517000AAA9A8A8A7A6A5A4A3A3A2A1A09F9F9EF1
:105180009D9C9C9B9A9999989797969595949393A3
:10519000929191908F8F8E8E8D8C8C8B8B8A89893A
:1051A00088888787868585848483838282818180BD
:1051B0000000FF070000F87F0EF1020E2EF0030E34
:1051C0005EF8046B364205D4012A43EB030515F55E
:1051D000001F12D8012841EB010C1CF5001F0CD850
:1051E0000ED14FEAD17C0CEB4C0C0CF1020C15F5F6
:1051F000001F08BF4CEBD37C04E04FF0080C01E02B
:105200004FEAD37C0CEB4C0526FA05F606F00706B0
:10521000B6F1040C06D20EEB860CBDE870404CF0E3
:10522000010C6047DFE80CF0090B02024FF000416F
:10523000A1F500214FF0000070BD1946104601286D
:1052400051EB010418BFD4F5001484BF002001F015
:10525000004170BD0808A0F500114FEA3101704708
:1052600043004FEAD30C4FEA3C0C43401FBF4007BA
:105270000CF1605113F0FE4F70471CF0006F03D12A
:105280000CF00041002070470CF0004343EA5070DE
:1052900040EACC0010B500F00EF800BF000000920C
:1052A0004FEA0001FFF7D6BF4FF00041A1F5002102
:1052B0004FF0000070470EF1020E2EF0030E5EF864
:1052C000044B244204D44FEA4102B2F17F4F11D87B
:1052D0004FEA4003B3F17F4F0CD80ED14FEAD07C98
:1052E0000CEB4C0C0CF1020CB2F17F4F08BF4CEBF5
:1052F000D17C04E04FF0080C01E04FEAD17C0CEBCC
:105300004C0324FA03F404F00704B4F1040C06D2AD
:105310000EEB840CBDE810404CF0010C6047DFE858
:105320000CF0070802024FF00040A0F5800010BD0D
:105330000846420018BFD2F1807288BF00F00040DA
:1053400010BDF1EE100A4FF6FF71C0F2C03120EA35
:10535000010040F04070E1EE100A7047FF2141EA81
:10536000D050C0057047000000000000000001029E
:1053700003040607080900000000010203040006F8
:105380001016000610160000B053000800000020A0
:1053900010000000EC010008C053000810000020BD
:1053A000983600000C020008F1F3FFFF0000000037
:1053B00001000000100000000024F40000000000C4
:040000050800018965
:00000001FF
