:020000040800F2
:1000000068350020290200087F2F0008E328000837
:100010007D2F000855050008F93700080000000092
:10002000000000000000000000000000B1300008E7
:100030005D06000800000000812F0008B3300008B2
:10004000430200084302000843020008430200087C
:10005000430200084302000843020008430200086C
:10006000430200084302000843020008430200085C
:100070007D0500084302000843020008430200080F
:10008000430200084302000821040008710500082B
:1000900059050008650500084302000843020008EE
:1000A000430200085D3100084302000843020008D3
:1000B000430200084302000843020008430200080C
:1000C00043020008430200084302000843020008FC
:1000D000430200084302000843020008ED3700080D
:1000E00043020008430200084302000843020008DC
:1000F00043020008430200084302000843020008CC
:1001000043020008430200084302000843020008BB
:100110004302000843020008693100084302000856
:1001200043020008890500089505000843020008FD
:10013000430200084302000843020008430200088B
:10014000430200084302000843020008430200087B
:1001500043020008A1050008AD050008430200089D
:10016000430200084302000843020008430200085B
:100170004302000843020008430200080000000098
:10018000430200084302000800F002F800F03CF8C7
:100190000AA090E8000C82448344AAF10107DA45E2
:1001A00001D100F031F8AFF2090EBAE80F0013F0F8
:1001B000010F18BFFB1A43F001031847DC3600009B
:1001C000FC360000103A24BF78C878C1FAD852072C
:1001D00024BF30C830C144BF04680C6070470000C1
:1001E0000023002400250026103A28BF78C1FBD840
:1001F000520728BF30C148BF0B6070471FB503F0DE
:1002000035FB1FBD10B510BD00F0CFF81146FFF74C
:10021000F5FF03F003FB00F0EDF803B4FFF7F2FF86
:1002200003BC00F0F5F80000094880470948004782
:10023000FEE7FEE7FEE7FEE7FEE7FEE7FEE7FEE796
:10024000FEE7FEE704480549054A064B70470000F3
:100250004D3100088901000868050020683500203C
:10026000681500206815002053EA020C00F0698030
:100270002DE9F04B4FF00006002B1FBFB3FA83F5BA
:1002800003FA05F424FA05F65E4012BF1643B2FAEB
:1002900082F502FA05F4C5F120051EBF22FA05FC1D
:1002A00044EA0C04203556EA044C4FEA144418BFC3
:1002B000641C4FF000084FF00009904271EB030CF2
:1002C00039D3002919BFB1FA81F701FA07F6B0FA5C
:1002D00080F700FA07F6C7F120071EBF20FA07FCD7
:1002E00046EA0C062037B6FBF4FCA7EB0507103FE7
:1002F00007F01F0BCBF120060CFA0BFB2CFA06F6CD
:1003000044BFB3460026202FA4BF5E464FF0000B2B
:100310005BEA060C08BF4FF0010B19EB0B09ABFBB6
:10032000027C48EB0608C01B06FB02CC0BFB03CC8F
:1003300071EB0C01C1E70B46024641464846BDE859
:10034000F08B13B54FF000004FF00001AFF30080C9
:10035000BDE81C4070474FF0000200B513469446BC
:100360009646203922BFA0E80C50A0E80C50B1F10D
:100370002001BFF4F7AF090728BFA0E80C5048BF21
:100380000CC05DF804EB890028BF40F8042B08BFBF
:10039000704748BF20F8022B11F0804F18BF00F8BB
:1003A000012B7047704770477047754600F02CF876
:1003B000AE4605006946534620F00700854618B052
:1003C00020B5FFF73FFFBDE820404FF000064FF09B
:1003D00000074FF000084FF0000B21F00701AC467A
:1003E000ACE8C009ACE8C009ACE8C009ACE8C00999
:1003F0008D46704710B50446AFF300802046BDE837
:100400001040FFF70ABF00000048704704050020B5
:1004100001491820ABBEFEE726000200704700002D
:10042000014800F0A7BA000014000020464910B5AA
:100430004A6822F440324A604A6843681A434A6074
:1004400001684A6822F480724A6001684A68036958
:1004500042EA03224A6001684A6822F040724A6018
:1004600001684A6883681A434A6001688A6822F40E
:1004700000628A6001688A68C3681A438A60816A78
:100480006FF07062D14201688A6822F070628A60FF
:1004900001688A680CD0836A1A438A6001688A6896
:1004A00022F040528A6001688A68C36A1A4301E0F8
:1004B00022F040528A6001688A6822F002028A6053
:1004C00001688A68037E42EA43028A6090F820103D
:1004D000002901684A680FD042F400624A6001684E
:1004E0004A6822F460424A6001684A68174C436ACD
:1004F00004EB43331A4301E022F400624A600168CE
:10050000CA6A22F47002CA620168CA6A838B104CFC
:1005100004EB03531A43CA6201688A6822F400722A
:100520008A6001688A6890F8303042EA43228A6023
:1005300001688A6822F480628A6001688A6840697A
:1005400042EA8020886010BD0023014000E0FFFFE8
:100550000000F0FFFEE70000014800F008BB0000CB
:100560005C000020014800F002BB00005C0000209D
:10057000014800F0FCBA00005C000020014800F0D7
:1005800071BD0000B0030020014800F06BBD000009
:1005900070040020014800F065BD0000F00200205A
:1005A000014800F05FBD000010040020014800F089
:1005B00059BD00005003002001681823CAB2103A48
:1005C000B2FBF3F2054B6FF30901032A9B5CC36591
:1005D00000D9091D8165084670470000763800087B
:1005E00010B5014600208B698A6A4FF0C07453B180
:1005F000B3F5005F15D072B1012A0CD0022A0AD0DF
:10060000032A09D104E01AB1012A06D0022A03D133
:10061000C96AC90100D5012010BDC96AA142FAD03A
:1006200010BD002AF7D0012AF2D0022AF3D0032A03
:10063000F3D010BD30B50468256825F48025256009
:10064000046863608368402B036803D09960006886
:10065000C26030BD9A600068C16030BD704772B63C
:10066000FEE7000070B590F83C20694D012A19D0D2
:10067000012280F83C200A6807230468092A13D95C
:10068000E6680A3A02EB420293409E43E6600A782B
:100690008B680A3A02EB420293400268D468234313
:1006A000D36010E0022070BD266902EB4202934045
:1006B0009E4326610A788B6802EB420293400268EF
:1006C0001469234313610268936B23F4401393630B
:1006D0000268936B0C8A4F4E06EB045423439363DA
:1006E0000A790B7CD21AD21C02EB82021F239340A0
:1006F0000268946B9C4394630A790B7CD21AD21CD7
:1007000002EB82030A8892B29A4003689C6B2243F0
:100710009A638A69AA420268936823F470239360FB
:10072000026893680CD08C692343936002689368D5
:1007300023F44013936002689368CC69234301E07B
:1007400023F4401393604A7D002A0268536802D064
:1007500043F4806301E023F4806353600A7D002A40
:100760000268536802D043F4805301E023F48053BD
:1007700053604A68012A16D0022A1FD0032A026851
:1007800027D0136A6FF30B0313620268136ACC68F5
:1007900023431362214B04681F4A9C4227D10C68F3
:1007A000122C20D023E0026853696FF30B035361CE
:1007B00002685369CC6823435361EBE7026893698D
:1007C0006FF30B03936102689369CC6823439361D1
:1007D000E0E7D3696FF30B03D3610268D369CC6898
:1007E0002343D361D6E7546844F48004546004681A
:1007F0009C4208D10968102901D0112903D1516800
:1008000041F400015160002180F83C10084670BDA1
:1008100001000F000000F0FF002301400020014014
:100820007047000078B50024009490F83C20012A1D
:1008300019D0012280F83C200A6807230568092A9C
:1008400013D9EE680A3A02EB420293409E43EE60EF
:100850000B788A680A3B03EB43039A400368DD6820
:100860002A43DA6010E0022078BD2E6902EB4202D2
:1008700093409E432E610B788A6803EB43039A40B2
:1008800003681D692A431A614A681F23072A13D285
:1008900005686E6B521E02EB820293409E436E63AC
:1008A0000B790A885B1E92B203EB83039A400368BC
:1008B0005D6B2A435A6327E005680D2A12D22E6B1E
:1008C000D21F02EB820293409E432E630B790A886B
:1008D000DB1F92B203EB83039A4003681D6B2A432C
:1008E0001A6311E0EE6A0D3A02EB820293409E43D6
:1008F000EE620B790A880D3B92B203EB83039A40B8
:100900000368DD6A2A43DA62164B0568144A9D4281
:1009100006D10D68122D03D1556845F48005556048
:1009200005689D4218D10B68102B01D0112B13D1F3
:10093000536843F400035360096810290CD10A4935
:100940000A4A0968B1FBF2F101EB8101490000E0BC
:10095000491E00910029FBD180F83C40002078BD61
:1009600000230140002001401000002040420F0001
:100970007047704770B5044600680668456816F011
:10098000020F05F020012AD049B3216CC90603D417
:10099000216C41F400712164816811F0405F17D12E
:1009A000217EA9B9C16A11F4700F02D0816849058E
:1009B0000ED4416821F020014160206C20F4807049
:1009C0002064206CC00403D4206C40F0010020643B
:1009D0002046FFF7CDFF21686FF01200086016F087
:1009E000040F05F0800132D089B3206CC00603D417
:1009F000206C40F4005020642068816811F4401F8E
:100A00001ED1816B11F4401F02D08168490517D4B3
:100A10004168490514D4816811F0405F10D1217EEE
:100A200071B9416821F080014160206C20F4805050
:100A30002064206CC00503D4206C40F001002064C9
:100A40002046FFF7EDFE21686FF00C00086016F0FD
:100A5000010F05F040010FD071B120680068C00798
:100A60000AD0206C40F480302064204600F043F827
:100A700021686FF00100086016F0200F05F080611A
:100A80000ED000290CD0606C40F002006064206839
:100A90006FF0200505602046FFF76BFF20680560BA
:100AA00070BD70B504004FF0000503D0206C002627
:100AB00010B107E0012070BD204600F01DF866640B
:100AC00084F83C60206CC00610D4206C20F4885060
:100AD00040F0020020642046FFF7A8FC6664206C0A
:100AE00020F0020040F00100206400E0012584F8BD
:100AF0003C60284670BD704710B586B0044614218E
:100B00006846FFF728FC16492068884225D1154819
:100B10000021026842F480620260006800F4806094
:100B2000059010481438026842F020020260006804
:100B300000F0200005904FF4806000900320CDE984
:100B400001016946084800F0FFFB0022114612200F
:100B500000F066FD122000F055FD06B010BD00004B
:100B600000220140443802400014024070472DE941
:100B7000F05F0546006800244669D0F80490876855
:100B8000D0F80CB0D0F810A0D0F81880F10748D0F9
:100B9000F90714D001218160B80703D5284600F079
:100BA000FFF90CE0780702D54FF4006407E038073E
:100BB00002D54FF4805402E0284600F0F0F9F80521
:100BC00016D529684FF480708860B80503D528468B
:100BD00000F0E8F90CE0780502D544F4005407E091
:100BE000380502D544F4804402E0284600F0D9F9E3
:100BF000F80316D529684FF480308860B80303D510
:100C0000284600F0D1F90CE0780302D544F4004402
:100C100007E0380302D544F4803402E0284600F0AF
:100C2000C2F9300707D55FEACB6004D529681020E8
:100C300044F40074C86070074FF0080707D55FEAF6
:100C40000B7004D52868C760284600F0A3F9B007E8
:100C500006D52868C068800702D0284600F09BF9B6
:100C6000700607D55FEACA6004D52968102044F4ED
:100C700080640861B00607D55FEA0A7004D5286869
:100C80000761284600F088F9F00606D52868006953
:100C9000800702D0284600F080F9B00308D55FEA4B
:100CA000C96005D5296810204860284600F076F90B
:100CB000F00307D55FEA097004D528684760284625
:100CC00000F073F9300446D55FEA497040D5F0056D
:100CD00004D55FEAC87001D044F00104B00504D522
:100CE0005FEA887001D544F00204700504D55FEA1C
:100CF000487001D544F00404300529D518F0700F70
:100D000026D008F07000402815D006DC102809D045
:100D100020280AD0302816D10AE050280ED06028AA
:100D200011D10EE044F008040DE044F010040AE094
:100D300044F0200407E044F0400404E044F0800460
:100D400001E044F480742868816921F070018161B8
:100D5000296804204860002C05D0686A2043686236
:100D60002846FFF703FFBDE8F09F70B5040003D0ED
:100D700094F8200010B104E0012070BD204600F07E
:100D800081F82068016841F00101016000F0DAFBA0
:100D90000546052604E000F0D5FB401B0A2811D8C3
:100DA00020684068C007F6D02068016821F0020181
:100DB000016000F0C7FB05460BE000F0C3FB401BE1
:100DC0000A2806D9606A40F40030606284F8206026
:100DD000D2E7206840688007EFD4207E0128206891
:100DE00001683DD021F080010160607E012820680B
:100DF000016838D021F040010160A07E0128206800
:100E0000016833D021F020010160E07E01282068D4
:100E100001682ED041F010010160207F0128206878
:100E2000016829D021F008010160607F0128206855
:100E3000016824D021F004010160D4E902010843D3
:100E4000D4E90412114308436168491E084321682C
:100E5000C86100206062012084F82000002070BD7D
:100E600041F08001C0E741F04001C5E741F02001B9
:100E7000CAE721F01001CFE741F00801D4E741F0C3
:100E80000401D9E7F0B587B0044614216846FFF79E
:100E900062FA3B4B3B48DFF8E4E01968D4F800C045
:100EA000384A03250226092710300024491CF4453E
:100EB00035D11960012907D1016841F00071016045
:100EC000006800F000700590106840F008001060A5
:100ED0001068CDE9005600F00800CDE904706946BD
:100EE0002948CDE9024500F02FFA002211461320CF
:100EF00000F096FB132000F085FB00221146142021
:100F000000F08EFB142000F07DFB0022114615201E
:100F100000F086FB152000F075FB07B0F0BDDFF890
:100F20006CE0F445F9D1D0F800C04CF0806CC0F80A
:100F300000C0D0F800C001290CF0806CCDF814C0BE
:100F4000196007D1016841F000710160006800F08C
:100F500000700590106840F002001060106802AB4D
:100F600000F0020005906020CDE9000683E8B000A3
:100F70006946074800F0E8F9CFE700000064004048
:100F80000000002030380240000C024000680040A1
:100F900000040240704770477047704770477047C1
:100FA0007047704770477047704770472DE9F041B0
:100FB0000446876D00F0C6FA064694F83500002511
:100FC000022806D08020606584F834500120BDE8F6
:100FD000F0812068016821F01601016020684169F4
:100FE00021F080014161206C08B9A06C20B120681B
:100FF000016821F0080101602068016821F0010109
:1010000001600CE000F09EFA801B052807D9202023
:101010006065032084F8350084F83450D7E72068F1
:101020000068C007EED194F85C103F208840B8609B
:10103000012084F8350084F834500020C7E790F888
:101040003510022903D08021416501207047052118
:1010500080F835100068016821F00101016000206E
:10106000704700002DE9F84304464FF00009CDF821
:10107000009063484FF41651A56D0068B0FBF1F77E
:101080002E6894F85C10082000FA01F131420FD06C
:1010900021680A6852070BD50A6822F004020A6028
:1010A00094F85C108840A860606D40F001006065B5
:1010B00094F85C104FF0010808FA01F0304208D0B3
:1010C00021684969090604D5A860606D40F00200F6
:1010D000606594F85C1004208840304208D0216894
:1010E0000968890704D5A860606D40F00400606558
:1010F00094F85C1010208840304218D021680968AC
:10110000090714D5A86020680168490304D5006860
:10111000000308D5A16C07E00168C90503D4016884
:1011200021F008010160216C09B12046884794F83C
:101130005C1020208840304231D021680968C906FF
:101140002DD5A86094F8350005282068016806D0E0
:10115000490347D5006800031DD4616C1CE021F0F1
:10116000160101602068416921F080014161206C15
:1011700008B9A06C20B12068016821F00801016065
:1011800094F85C103F208840A86084F8358084F88B
:101190003490216D1FE0E16B09B120468847606DF6
:1011A00000282BD0606DC00714D0052084F83500CE
:1011B0002068016821F0010101600098401C009046
:1011C000B84203D820680068C007F6D184F835809B
:1011D00084F83490E16C002910D001B02046BDE8BD
:1011E000F04308470168C905D5D4016821F0100112
:1011F000016084F8358084F83490CCE7BDE8F8834A
:10120000100000202DE9F041044600F09BF906464D
:101210005CB1022084F83500002584F83450206841
:10122000016821F0010101600DE00120BDE8F081BD
:1012300000F088F9801B052805D92020606503206F
:1012400084F83500F2E720680068C007F0D1226812
:10125000116820480140D4E901031843D4E903365A
:101260003343184363691843A3691843E369184378
:10127000236A18430843616A042903D1D4E90B1394
:1012800019430843106020684069666A20F007012E
:1012900030460E43012704280CD1A06A0643E06AB9
:1012A00040B12046FFF79CF920B14020606584F8EA
:1012B0003570BAE7206846612046FFF77DF994F85B
:1012C0005C203F2191408160656584F83570002085
:1012D000ACE700003F8010F02DE9F0410446866D38
:1012E00090F83400002501280DD0012084F8340046
:1012F00094F835700020012F07D084F834000225BF
:101300002846BDE8F0810220FBE7022784F835700B
:1013100060652046FFF78EF994F85C103F20884006
:10132000B0602068016841F016010160206C20B1B6
:101330002068016841F0080101602068016841F0FF
:1013400001010160DCE700002DE9F84FDFF8BCA1E6
:101350000022012503264FF00F090AF1040BAAF120
:10136000040E00BF0B6805FA02F42340A34270D1BB
:101370000F7907F00307012F01D0022F16D18768DC
:101380004FEA420806FA08FC27EA0C07D1F80CC01D
:101390000CFA08FC4CEA070CC0F808C04768A743E1
:1013A0000C79C4F3001494403C4344600C79E4434A
:1013B000A4070AD0C4684FEA420C06FA0CF7BC43F3
:1013C0008F6807FA0CF72743C7600C7904F0030411
:1013D000022C12D1D40800EB840CDCF82040570713
:1013E000FF0E09FA07F824EA0804D1F8108008FA79
:1013F00007F848EA0408CCF8208004684FEA420C59
:1014000006FA0CF7BC430F7907F0030707FA0CF74D
:10141000274307604C6814F4403F70D03C4C276869
:1014200047F480472760246822F0030704F48044CF
:101430000094384C07EB040CDCF8084897074FEA97
:10144000177809FA08F7BC43334FB84202D1002796
:1014500024E054E0314FB84201D101271EE0304F63
:10146000B84201D1022719E02E4FB84201D103271B
:1014700014E02D4FB84201D104270FE02B4FB842A2
:1014800001D105270AE02A4FB84201D1062705E01D
:10149000284FB84201D1072700E0082707FA08F7CC
:1014A0002743CCF80878DAF800405746D1F804C052
:1014B0009C435FEACC2C00D51C433C60DBF8004029
:1014C0005F46D1F804C09C435FEA8C2C00D51C43D6
:1014D0003C60DEF800407746D1F804C09C435FEAE8
:1014E0008C3C00D51C433C60084F083F3C68D1F859
:1014F00004C09C435FEACC3C00D51C433C60521CBA
:10150000102AFFF42FAFBDE8F88F0000083C01401F
:101510004438024000300140000002400004024014
:1015200000080240000C024000100240001402407B
:1015300000180240001C02400AB181617047090492
:10154000FBE70000014880687047000004000020AD
:1015500002488168027811448160704704000020CD
:101560000B4810B5016841F400710160016841F455
:1015700080610160016841F480710160032000F026
:101580006FF8002000F006F800F024F8002010BDED
:10159000003C024070B50D4D04464FF47A71287836
:1015A000B1FBF0F00A490968B1FBF0F000F0B2FBC2
:1015B00048B9102C07D200222146501E00F030F806
:1015C00000206C6070BD012070BD00000400002090
:1015D000100000200A4808B5016841F4804101600C
:1015E000006800F4804000900548001F016841F049
:1015F00080510160006800F08050009008BD00003C
:1016000044380240002809DB00F01F02012191400C
:101610004009800000F1E020C0F800117047000090
:10162000F0B40E4B1B680C46C3F30223C3F107054D
:10163000042D00D90425191D072901D2002300E03B
:10164000DB1E012606FA05F1491E214099409E4005
:10165000761E16403143F0BC02F0CFB80CED00E02E
:10166000064900F0070208684FF6FF03184040EAF9
:101670000220034A10430860704700000CED00E0B0
:101680000000FA052DE9F0470E46050065D0DFF8A9
:101690001481D8F80000F7B200F00700B04207D27A
:1016A00088F80070D8F8000000F00700B04254D16C
:1016B00028683D4C810712D5400703D5206840F4C7
:1016C000E05020602878000703D5206840F460408F
:1016D00020602068A96820F0F00008432060287886
:1016E000C0072DD0304968680839012812D0022877
:1016F00013D0032811D00968890700292DDA216841
:1017000021F0030101432160FFF71CFF814641F2F4
:10171000883A0EE009688903EFE709688901ECE778
:10172000FFF710FFA0EB0901514502D90320BDE8E6
:10173000F0872068696800F00C00B0EB810FEFD1F2
:10174000D8F80010404601F00701B14207D90770F0
:10175000006800F00700B04201D00120E7E72878D8
:10176000400705D52068E96820F4E0500843206070
:101770002878000706D52068296920F4604040EAEF
:10178000C100206000F038F82168084AC1F3031155
:10179000515CC8400649086006480068FFF7FAFE39
:1017A0000020C4E7003C0240083802407E380008B0
:1017B000100000200800002004480549006809685E
:1017C000044AC1F38221515CC840704710000020D8
:1017D000083802408E380008044805490068096846
:1017E000044AC1F34231515CC840704710000020E8
:1017F000083802408E380008154810B5006810F00F
:101800000C02144813D01449042A0FD0082A0ED110
:101810000F4C241F2268236802F03F025B0207D5A9
:101820002068C0F38810A0FB010106E0084610BD47
:101830002168C1F38811A1FB00010023FEF714FD0C
:101840002168C1F30141491C4900B0FBF1F010BD12
:10185000083802400024F400001BB7002DE9F84FBF
:1018600004006ED02078DFF84C93C007A9F104057E
:101870004AD009F104000168C1F38101012908D0AF
:101880000068C0F3810002280AD1D9F800004002A4
:1018900006D52868800337D560680028E1D033E09A
:1018A0006068B0F5803F10D0B0F5A02F286810D048
:1018B00020F480302860286820F480202860606848
:1018C000A8B1FFF73FFE06460DE0286840F48030DF
:1018D000F4E740F480202860F7E700BFFFF732FE0E
:1018E000801B642873D828688003F7D50CE0FFF7C5
:1018F00029FE064605E000BFFFF724FE801B642892
:10190000F0D828688003F7D42078DFF8AC8280070D
:101910004FF0000A3ED5A748001D016811F00C0FDA
:1019200008D00068C0F3810002280BD1D9F800006C
:10193000400207D42868800716D5E068012800D146
:1019400012E033E1E068B8B10120C8F80000FFF709
:10195000F9FD064605E000BFFFF7F4FD801B0228F5
:10196000C0D828688007F7D52868216920F0F800DA
:1019700040EAC10028600DE0C8F800A0FFF7E2FDD2
:10198000064604E0FFF7DEFD801B02281FD828680A
:101990008007F7D42078000722D5864F87486169F1
:1019A000703771B101210160FFF7CCFD064604E0FC
:1019B000FFF7C8FD801B022809D838688007F7D5D3
:1019C0000EE0C0F800A0FFF7BDFD064605E082E08E
:1019D000FFF7B8FD801B02287DD838688007F7D450
:1019E0002078400768D5DFF8CCB100270BF13C0B1D
:1019F000DBF80000C0000BD4DBF8001041F0805190
:101A0000CBF80010DBF80000012700F080500090B8
:101A10006B4E3068C00510D4306840F48070306080
:101A2000FFF790FD009005E0FFF78CFD0099401A4C
:101A3000022850D83068C005F6D55E4EA0686C36D6
:101A400001280FD00528306810D020F00100306048
:101A5000306820F004003060A068B8B1FFF772FD74
:101A600000900FE0306840F00100F4E740F004001F
:101A70003060F7E7FFF766FD0099411A41F28830C0
:101A8000814266D830688007F4D50EE0FFF75AFD32
:101A9000009007E0FFF756FD0099411A41F28830A7
:101AA000814256D830688007F4D42FB1DBF800109B
:101AB00021F08051CBF80010A069C8B33D49091D41
:101AC0000968C1F3810102294AD00228504607D093
:101AD000C8F8600000E03CE0FFF734FD04463BE05E
:101AE0004746C8F86000FFF72DFD064605E000BF39
:101AF000FFF728FD801B02282BD828688001F7D427
:101B0000D4E907010843A16A2E4A490802EB0141C2
:101B1000626A41EA8211084394F82C1040EA01619C
:101B2000C9F8001001203866FFF70CFD044606E0F6
:101B30003EE000BFFFF706FD001B022809D8286819
:101B40008001F7D534E000BFFFF7FCFC001B022842
:101B500002D90320BDE8F88F28688001F4D427E07B
:101B60000128F7D0D9F80000E26900F48001914221
:101B70001CD1226A00F03F01914217D147F6C07193
:101B8000626A0140B1EB821F10D1A26A4FF0FF33AD
:101B900000F4403103EB5202B1EB024F06D194F84E
:101BA0002C1000F07060B0EB016F01D00120D1E784
:101BB0000020CFE70438024000004742800E474231
:101BC000007000400000FFFF70B5040009D0606A9B
:101BD000002540B125616561A56294F8510040B1CE
:101BE0000CE0012070BD6068B0F5827FF4D0E56143
:101BF000F2E784F85050204600F044F8022084F8C0
:101C000051002068016821F040010160A08821890D
:101C100000F4827001F404410843A18901F40061D9
:101C20000843217C01F002010843217D01F00101FC
:101C30000843218B01F400710843217F01F0380132
:101C4000084394F8201001F080010843218D01F42D
:101C50000051084321680860A069042101EA10408E
:101C600094F8241001F010010843216848602068AE
:101C7000C16921F40061C1616565012084F85100EA
:101C8000002070BDF0B587B0044614216846FEF709
:101C900062FB1C492068884232D11B48002401683D
:101CA00041F480510160006800F4805005901648AE
:101CB0001438016841F002010160016801F002017D
:101CC0000591016841F0010101600068022500F002
:101CD000010005901820CDE9000502AA032605277A
:101CE00082E8D00069460948FFF72EFB8020CDE945
:101CF000000502AA694682E8D0000548FFF724FBE8
:101D000007B0F0BD003001404438024000040240FA
:101D10000000024010B5401EB0F1807F01D30120C9
:101D200010BD4FF0E02460610F21601701F065FDE8
:101D30000020A06107202061002010BD704770477F
:101D400010B590F83C20012A22D0012280F83C20D6
:101D5000CA688C6822F4407222434C6822F4806284
:101D600022430C6822F4006222430C6922F4805260
:101D700022434C6922F400522243C969002322F411
:101D800080420A4301684A6480F83C30002010BD5C
:101D9000022010BD70B590F83C20012A32D00124F9
:101DA00080F83C40022280F83D2003685A689D6814
:101DB00022F070060A6832435A60134B02689A4256
:101DC00014D0B2F1804F11D0104B9A420ED0104B6C
:101DD0009A420BD00F4B9A4208D00F4B9A4205D033
:101DE0000E4B9A4202D00E4B9A4204D1496825F01C
:101DF00080031943916080F83D40002180F83C1039
:101E0000084670BD022070BD000001400004004083
:101E100000080040000C0040000401400040014068
:101E20000018004010B5040003D094F83D0010B134
:101E300007E0012010BD002084F83C00204600F09F
:101E40001FF8022084F83D00211D206801F092F95E
:101E5000012084F8460084F83E0084F83F0084F8AE
:101E6000400084F8410084F8420084F8430084F87C
:101E7000440084F8450084F83D00002010BD0000B7
:101E800008B50168204881420FD12048016841F01F
:101E9000010101600068002200F00100009011467D
:101EA0001920FFF7BDFB192029E01848184A001F28
:101EB000914207D1016841F004010160006800F01F
:101EC000040009E0134A914208D1016841F0080179
:101ED0000160006800F00800009008BD0E4A9142C1
:101EE000FBD1016841F0100101600068002200F0A0
:101EF0001000009011463620FFF792FB3620BDE817
:101F00000840FFF77FBB000000000140443802405A
:101F100000080040000C00400010004070B504466E
:101F200090F83C000025012817D0012684F83C6079
:101F3000022084F83D002068826822F0770222F4B3
:101F40007F4282600868502838D00DDC20284FD0AE
:101F500005DC90B3102811D14AE0022070BD302872
:101F600046D040280AD13BE060282FD070280DD001
:101F7000B0F5805F03D0B0F5005F12D0012584F882
:101F80003D60002084F83C00284670BDCB68D1E954
:101F90000121206801F052F92068816841F0770141
:101FA00009E0CB68D1E90121206801F047F92068F8
:101FB000816841F480418160E1E719E0CA684968BD
:101FC000206801F00FFA5021206806E0CA684968CD
:101FD000206801F018FA6021206801F039F9CEE795
:101FE000CA684968206801F0FDF940212068F4E7DB
:101FF000226801461046F0E7704770B50446006855
:1020000001694FF00005C943890715D4C168C94368
:10201000890711D4E91E01610120207720688069B9
:102020008007204602D0FFF7E7FF04E000F0F4F855
:10203000204600F086F9257720680169C9434907E1
:1020400017D4C168C943490713D46FF00401016173
:10205000022020772068806910F4407F204602D05B
:10206000FFF7CAFF04E000F0D7F8204600F069F956
:10207000257720680169C943090716D4C168C94397
:10208000090712D46FF0080101610420207720684D
:10209000C0698007204602D0FFF7AEFF04E000F0E1
:1020A000BBF8204600F04DF9257720680169C94347
:1020B000C90617D4C168C943C90613D46FF010010B
:1020C0000161082020772068C06910F4407F204615
:1020D00002D0FFF791FF04E000F09EF8204600F0E8
:1020E00030F9257720680169C943C90708D1C1685B
:1020F000C943C90704D1891E0161204600F022F9B5
:1021000020680169C943090609D4C168C9430906A1
:1021100005D46FF0800101612046FFF70FFE2068B3
:102120000169C943490609D4C168C943490605D4B0
:102130006FF040010161204600F005F92068016957
:10214000C94389060BD4C168C943890607D46FF017
:10215000200101612046BDE87040FFF7F0BD70BD71
:1021600010B586B0044614216846FEF7F4F82368DB
:10217000224C002122480222A34212D1036843F0DC
:1021800010030360006800F0100005904FF4D44085
:102190000090CDE901210120CDE9031069461948DD
:1021A00012E0194CA34213D1036843F00803036003
:1021B000006800F00800059020140090CDE901218E
:1021C000CDE9031269461148FFF7BEF806B010BD0D
:1021D0000F4CA342FAD1036843F080030360006808
:1021E00000F0800005904FF4E0500090CDE901210F
:1021F000CDE9031269460748E6E700000000014008
:10220000303802400010024000080040000C02403C
:10221000000C0040001C0240704770B5044690F866
:102220003C0000260D4601280FD0012084F83C0018
:102230006AB1042A1DD0082A2FD00C2A3FD00126CB
:10224000002084F83C00304670BD022070BD20683C
:1022500001F006F82068816941F008018161206879
:10226000816921F004018161206881692A69114333
:1022700011E0206801F024F82068816941F40061D0
:1022800081612068816921F48061816120688169B0
:102290002A6941EA02218161D2E7206801F046F80B
:1022A0002068C16941F00801C1612068C16921F05D
:1022B0000401C1612068C1692A69114311E02068E5
:1022C00001F068F82068C16941F40061C1612068CB
:1022D000C16921F48061C1612068C1692A6941EA4C
:1022E0000221C161ACE710B5040003D094F83D00B1
:1022F00010B107E0012010BD002084F83C0020460A
:1023000000F01EF8022084F83D00211D206800F036
:1023100031FF012084F8460084F83E0084F83F0035
:1023200084F8400084F8410084F8420084F84300B7
:1023300084F8440084F8450084F83D00002010BD76
:10234000704770477047704738B5044690F83E00B4
:10235000202822D181B17AB194F83C0001281CD008
:10236000012084F83C002063204601F0F5F90028A4
:1023700003D1216B012901D0012038BD21680A68F1
:102380004968009121680C3151E8002F42F0100299
:1023900041E80023002BF5D138BD022038BD0000F4
:1023A00010B500680649884208D11222054906483E
:1023B000FFF7CAFFBDE8104000F0E4BD10BD00000B
:1023C00000480040D00400206802002000F0DABD80
:1023D000F8B5016804460868CA684B6910F00F0F29
:1023E0004FF0000559D003F0010602F4907737430F
:1023F00065D0C10705D0D10503D5216C41F001019D
:102400002164410705D5D90703D0216C41F00201B1
:102410002164810705D5D90703D0216C41F004015F
:102420002164010707D502F02001314303D0216C5C
:1024300041F008012164216C00293AD0800604D5BE
:10244000900602D5204601F0A0F820684069216C72
:10245000C0F38010090700D460B3204601F060F893
:1024600020684069400621D52068143050E8001FDC
:1024700021F0400140E80012002AF5D1A06BA8B17C
:102480006C490165A06BFEF7DAFD002811D0A06B46
:10249000016D01B0BDE8F040084783060FD59306F3
:1024A0000DD52046BDE8F84001F06FB82046FFF793
:1024B0008DFFF8BD2046FFF789FF2564F8BD266B28
:1024C0002023012E79D1C60677D5D60675D50868A2
:1024D000486800904869400640D5A16B086840688C
:1024E0000004000CEAD0A28D8242E7D9E085C869D9
:1024F000B0F5807F2DD020680C3050E8001F21F40B
:10250000807140E80012002AF5D12068143050E8AC
:10251000001F21F0010140E80012002AF5D12068D7
:10252000143050E8001F21F0400140E80012002A5A
:10253000F5D184F83E30256320680C3050E8001F48
:1025400021F0100140E80012002AF5D1A06BFEF73F
:102550002DFDA08DE18D401A81B229E0A08DE18D85
:10256000401A81B2E08D0028A8D00029A6D02068AA
:102570000C3050E8002F22F4907240E80026002E24
:10258000F5D12068143050E8002F22F0010240E815
:102590000026002EF5D184F83E30256320680C30EB
:1025A00050E8002F22F0100240E80023002BF5D164
:1025B0002046FFF7F5FEF8BDFFE705062BD515060B
:1025C00029D594F83D002128F5D1A068B0F5805FA9
:1025D00001D12069B0B1206A411C216221680078D4
:1025E0004860E08C401E0004000CE084E3D12068C9
:1025F000C16821F08001C1602068C16841F04001DC
:10260000C160D8E7206A0088C0F308004860206AEB
:10261000801C2062E5E74006CDD55006CBD5CA68C0
:10262000204622F04002CA6084F83D3000F058F99C
:10263000C1E700002B34000870B5040004D094F802
:102640003D00002510B106E0012070BD84F83C502B
:10265000204600F023F8242084F83D002068C1685B
:1026600021F40051C160204600F0F0FF20680169AC
:1026700021F4904101612068416921F02A01416102
:102680002068C16841F40051C1602564202084F8AD
:102690003D0084F83E00002070BD00002DE9F04FA1
:1026A00087B0044614216846FDF755FE8048DFF8E0
:1026B000FC811438D4F800C07D4B0221012203268E
:1026C000002507154FF007094FF0006BC4455DD199
:1026D000D3F800C04CF0100CC3F800C01B6803F026
:1026E00010030593036843F002030360036803F0DB
:1026F00002030593036843F00103036000688A4600
:1027000000F0010005908020CDE9000ACDE9022605
:1027100090466946CDF810906648FEF715FE781091
:10272000CDE9000ACDE902866946CDF810906248ED
:10273000FEF70AFE624E6148D8463060C6E901B530
:10274000C6E903577561B561F5613562304675625A
:10275000FEF758FD08B1FDF782FFA663B463584E3B
:10276000564860367830E6E802084020A1C6544852
:1027700046F814596030B561F56135627562FEF74F
:1027800041FD08B1FDF76BFF66638DE0DFF8348132
:10279000C4453DD1464B1B1FD3F800C04CF4802CE0
:1027A000C3F800C01B6803F480230593036843F05B
:1027B00004030360006800F0040005904FF44060DB
:1027C0008DE8470269464048FEF7BEFD3C4E3F4853
:1027D000C0363060C6E901B5C6E9035775614FF4EC
:1027E0004030B561C6E9075030467562FEF70AFD14
:1027F00008B1FDF734FFA663002211462720B46319
:10280000FEF70EFF2720FEF7FDFE07B0BDE8F08FB4
:10281000DFF8BC80C445F8D1D3F800C04CF0200CE0
:10282000C3F800C01B6803F020030593036843F05E
:1028300040030360006800F0400005904FF48440BE
:102840008DE847000820049069462248FEF77CFD89
:102850001A48214E60304FF02068E6E80208402018
:10286000A1C61D4846F81459B561F5613562756217
:10287000FEF7C8FC08B1FDF7F2FE6663B463164EBE
:102880000E48603618383060C6E90185C6E903573E
:102890007561B561F561356230467562FEF7B2FC6F
:1028A00008B1FDF7DCFEA663B463AEE7001001409B
:1028B00044380240000402400000024040640240EC
:1028C000F00200200048004000080240286002405A
:1028D00000140140001802401004002070477047A7
:1028E0007047FEE770B58CB00024089409940A94F0
:1028F000202168460B94FDF72EFD1F481D49012538
:1029000001604FF48031C0E901140461057680F85C
:1029100020400903C162C5614910C460816280F82A
:1029200030404561FEF7BDF808B1FDF798FE082676
:1029300002200896CDE9095008A90F48FDF772FF5B
:1029400008B1FDF78CFECDE900650C480294CDE995
:1029500006048DF8154004958DF814406946064824
:102960000394FDF77FFE002801D0FDF778FE0CB040
:1029700070BD0000002201401400002001000F0083
:10298000104810B50E4901600321416000214FF449
:1029900020228160C0E903124FF480124261017667
:1029A000012242768176C17601774177FEF7DDF923
:1029B000002803D0BDE81040FDF751BE10BD000057
:1029C000006400405C000020104810B50E49016012
:1029D0000321416000214FF420228160C0E90312ED
:1029E0004FF4801242610176012242768176C176EF
:1029F00001774177FEF7B9F9002803D0BDE8104010
:102A0000FDF72DBE10BD00000068004084000020CE
:102A10001D4808B5016841F480010160016801F4B6
:102A200080010091016841F40011016000680022FA
:102A300000F40010009011460C20FEF7F1FD0C2070
:102A4000FEF7E0FD002211463920FEF7E9FD3920AE
:102A5000FEF7D8FD002211463A20FEF7E1FD3A20AC
:102A6000FEF7D0FD002211464520FEF7D9FD452096
:102A7000FEF7C8FD002211464620FEF7D1FDBDE855
:102A800008404620FEF7BEBD303802402DE9F04731
:102A900086B014216846FDF75EFC4F4800240168AB
:102AA00041F002010160016801F002010591016835
:102AB00041F040010160016801F0400105910168A9
:102AC00041F001010160016801F001010591016817
:102AD00041F008010160016801F0080105910168F9
:102AE00041F004010160016801F0040105910168F1
:102AF00041F480710160016801F480710591016801
:102B000041F080010160016801F0800105910168D8
:102B100041F020010160016801F020010591016888
:102B200041F0100101600068DFF8B08000F0100093
:102B30000590012210214046FEF7FEFCDFF8A0A020
:102B4000012211465046FEF7F7FCC02000900225F6
:102B5000CDE901540326CDE9034669462148FEF735
:102B6000F3FBE8010090CDE90154DFF87C90694661
:102B70004846CDE90345FEF7E7FB40270097CDE93E
:102B80000154CDE9034669464846FEF7DDFB009750
:102B9000CDE90154CDE9034669461448FEF7D4FB5C
:102BA0000125CDE90054694640460295FEF7CCFB6D
:102BB0001020CDE90005CDE9025469464046FEF7F4
:102BC000C3FBCDE902540095694650460195FEF7D6
:102BD000BBFB06B0BDE8F087303802400000024081
:102BE000000402400020024000080240001402409D
:102BF000104810B50E4901604FF482714160002108
:102C000081600122C160C0E904125202826118226F
:102C1000C0E90721416281620A21C162FEF7D4FF47
:102C2000002803D0BDE81040FDF719BD10BD00001D
:102C300000300140AC00002010B596B000240F9485
:102C400010941194129413941C2168461494FDF767
:102C500082FB202107A8FDF77EFB35483349016040
:102C6000A721C0E9011444F61F61C0E903144461BF
:102C70008461FFF7D7F808B1FDF7F1FC4FF48050FD
:102C80000F900FA92A48FFF749F908B1FDF7E7FCB3
:102C90002748FFF728FB08B1FDF7E1FC139413A9BF
:102CA00023481494FFF776F808B1FDF7D8FC6020AC
:102CB00000904FF4FA60CDE9010403940494059464
:102CC000002269461A480694FFF7A7FA08B1FDF7F3
:102CD000C6FC042269461648FFF79FFA08B1FDF7C3
:102CE000BEFC082269461248FFF797FA08B1FDF7C3
:102CF000B6FC0C2269460E48FFF78FFA08B1FDF7C3
:102D0000AEFC0794089409944FF400500A94CDE95E
:102D10000B4007A906480E94FFF712F808B1FDF71B
:102D20009EFC0348FFF71CFA16B010BD00000140DE
:102D30000401002010B58EB0002407940894099473
:102D40000A940B941C2168460C94FDF704FB1E4862
:102D50001C49C0E9001445F20721C0E90241802165
:102D600004618161FFF75EF808B1FDF778FC4FF46C
:102D70008050079007A91448FFF7D0F808B1FDF775
:102D80006EFC1148FFF7AFFA08B1FDF768FC0B9431
:102D90000BA90D480C94FEF7FDFF08B1FDF75FFC91
:102DA0006020CDE900040294082269460648049494
:102DB000FFF733FA08B1FDF752FC0348FFF7D0F9EB
:102DC0000EB010BD000800404C01002010B58EB0C0
:102DD00000240794089409940A940B941C216846D3
:102DE0000C94FDF7B8FA25482349C0E90014632183
:102DF000C0E9024104618461FFF714F808B1FDF7EE
:102E00002EFC4FF48050079007A91C48FFF786F866
:102E100008B1FDF724FC1948FFF765FA08B1FDF782
:102E20001EFC0B940BA915480C94FEF7B3FF08B1D8
:102E3000FDF715FC6020CDE90004029400226946EC
:102E40000E480494FFF7E9F908B1FDF708FC0422E5
:102E500069460A48FFF7E1F908B1FDF700FC0822CE
:102E600069460648FFF7D9F908B1FDF7F8FB0348B2
:102E7000FFF776F90EB010BD000C00409401002061
:102E80001CB500240E4800940C49019401605321A4
:102E9000C0E9011440F2E7318461C160FEF7C2FF6E
:102EA00008B1FDF7DCFB0094694605480194FEF784
:102EB00071FF002801D0FDF7D2FB1CBD00100040BF
:102EC000DC0100200C4810B50A4901600B49416043
:102ED000002181600C22C160C0E904128161C161DE
:102EE000FFF7AAFB002803D0BDE81040FDF7B7BBF1
:102EF00010BD0000001001402402002040420F00DD
:102F00000E4810B50C4901600D4941604FF48051E5
:102F1000816000214FF48062C0E903120C22C0E9F5
:102F20000521C161FFF788FB002803D0BDE81040F0
:102F3000FDF795BB10BD000000480040680200206E
:102F4000A08601000C4810B50A4901604FF4E13138
:102F50004160002181600C22C160C0E904128161DE
:102F6000C161FFF769FB002803D0BDE81040FDF701
:102F700076BB10BD00140140AC020020FEE7FEE766
:102F80007047000047480178427841EA0221C1F3C6
:102F90000A01A1F5806100EE101AB8EEC01A9FED8B
:102FA000420A00F11201C1EE000A10EE902A0A60F6
:102FB00042788378D20842EA4312C2F30A02A2F5A9
:102FC000806200EE902AB8EEE01AC1EE000A10EE20
:102FD000902A4A608278C378920942EA8302037990
:102FE00042EA8322C2F30A02A2F5806200EE902A2E
:102FF000B8EEE01AC1EE000A10EE902A8A6002795B
:103000004379520842EAC312C2F30A02A2F580626F
:1030100000EE902AB8EEE01AC1EE000A10EE902AF7
:10302000CA604279C2F301120A74427992094A7461
:103030008279C37942EA032212B200EE102AF8EE36
:10304000C00A9FED1A0A60EE800A10EE902AC1F8BD
:103050001220027A437A42EA032212B200EE902A48
:10306000F8EEE00A60EE800A10EE902AC1F8162011
:10307000827AC37A42EA032212B200EE902AF8EE74
:10308000E00A20EE800A10EE102AC1F81A20027B16
:103090008A77427BCA77827BC07B42EA0020088421
:1030A00070470000D00400200000254400000038D4
:1030B0007047FEF74DBA000030B593B03021684636
:1030C000FDF749F914210CA8FDF745F91D48002525
:1030D000016841F080510160006800F0805011905B
:1030E0001948016841F4804101600068022400F43D
:1030F0008040119001200090000401908001CDE9F2
:10310000064006200890A820CDE9090404200B9071
:103110006846FEF7A3FB08B172B6FEE70CA90F20C4
:1031200081E831004FF4A0500F904FF48050109080
:1031300005210CA8FEF7A6FA002801D072B6FEE71A
:1031400013B030BD403802400070004002480168B2
:1031500041F470010160704788ED00E00148FEF71E
:103160004CBF0000040100200148FEF746BF0000EC
:10317000DC010020F0B50268254C264D264E274F75
:10318000274B4FF0804CA04209D0604507D0A842A1
:1031900005D0B04203D0B84201D0984204D122F009
:1031A000700E4A6842EA0E02A0421BD0604519D058
:1031B000A84217D0B04215D0B84213D0984211D0CF
:1031C000184DA8420ED0184DA8420BD0174DA8425A
:1031D00008D0174DA84205D0164DA84202D0164D72
:1031E000A84203D122F44075CA682A434D6922F0EF
:1031F00080022A4302608A68C2620A688262A04230
:1032000001D0984201D10969016301214161F0BDFA
:10321000000001400004004000080040000C004095
:1032200000040140004001400044014000480140CA
:1032300000180040001C00400020004010B58468C9
:1032400042EA032224F47F440A432243826010BDF1
:10325000826822F070020A4342F0070181607047E1
:10326000F0B5026A22F001020262036A42688469D0
:10327000124E24F073050C682C4323F002058B6872
:103280002B430D4DA84201D0B04205D123F00807D1
:10329000CB683B4323F00403A84201D0B04205D1E0
:1032A0004D6922F4407215438A692A434260846161
:1032B000496841630362F0BD000001400004014021
:1032C000F0B5026A22F010020262026A4368846961
:1032D0000D6824F4E64444EA05248D6822F02002B7
:1032E00042EA05120F4D104EA84201D0B04206D15D
:1032F000CF6822F0800242EA071222F04002A84280
:1033000001D0B04207D14D6923F4406343EA8503FD
:103310008D6943EA85034360846149688163026281
:10332000F0BD00000000014000040140F0B5026A59
:1033300022F480720262026A4368C46922F4007255
:1033400024F073050C68124E2C438D6842EA052266
:103350000E4DA84201D0B04206D1CF6822F40062DF
:1033600042EA072222F48062A84201D0B04207D18B
:103370004D6923F4405343EA05138D6943EA05136D
:103380004360C4614968C1630262F0BD000001404E
:103390000004014030B5026A22F480520262046ADD
:1033A0004268C3690D6823F4E64343EA05238D6848
:1033B00024F4005444EA0534084DA84202D0084DD4
:1033C000A84204D14D6922F4804242EA851242604B
:1033D000C36149680164046230BD0000000001401F
:1033E0000004014010B5036A046A24F00104046279
:1033F000846924F0F00444EA021423F00A020A4328
:103400008461026210BD10B5036A23F010030362E9
:103410008369046A23F4704343EA023224F0A00370
:1034200043EA01118261016210BD10B5806B002179
:10343000C185C184FEF7CAFF10BD70B5846B2068DA
:10344000406994F83D10C0F3C0100025212904D133
:1034500018B1E584204600F08AF82068406994F8A5
:103460003E10C0F38010222904D118B1E585204612
:1034700000F056F8206C40F0100020642046FEF763
:10348000A5FF70BD10B50146806B09680968C905C4
:103490002FD40021C18501680C3151E8002F22F49E
:1034A000807241E80023002BF5D10168143151E806
:1034B000002F22F0010241E80023002BF5D1016822
:1034C000143151E8002F22F0400241E80023002B84
:1034D000F5D1202180F83E10016B012909D1016846
:1034E0000C3151E8002F22F0100241E80023002B9C
:1034F000F5D1016B012902D0FFF7F0F910BD818DE4
:10350000FEF74EFF10BD10B5806B016B012902D094
:10351000FFF7E5F910BD818D4908FEF741FF10BDA9
:1035200001680C3151E8002F22F4907241E8002329
:10353000002BF5D10168143151E8002F22F001026F
:1035400041E80023002BF5D1016B012909D1016865
:103550000C3151E8002F22F0100241E80023002B2B
:10356000F5D1202180F83E100021016370470168E9
:103570000C3151E8002F22F0C00241E80023002B5B
:10358000F5D1202180F83D10704708B590F83E1025
:10359000222901D0022008BD82684FF480539A424C
:1035A00001D1016921B1816A9A421BD04AB10AE076
:1035B0000268816A5268C2F308020A80816A891C23
:1035C00008E0026972B10268526802F07F020A7074
:1035D000816A491C8162C18D491E0904090CC1859B
:1035E00003D019E002685268F1E70168CA6822F066
:1035F0002002CA600168CA6822F48072CA60016849
:103600004A6922F001024A61202180F83E10016BD4
:10361000012903D0FFF762F9002008BD00210163F2
:1036200001680C3151E8002F22F0100241E800231C
:10363000002BF5D101680A68D20602D50A684968EC
:103640000091818DFEF7ACFEE6E7000070B5044600
:1036500000680169E26821F4405111430161216968
:10366000A068E26908436169114308432168CA6898
:1036700049F20C639A430243CA6020684169A26917
:1036800021F440711143416131492068884202D0E0
:103690003049884202D1FEF79FF801E0FEF78CF82E
:1036A000E2690023192164253226B2F5004F6268D1
:1036B00028D0A0FB0101930F9200FCF7D5FD014635
:1036C000B0FBF5F06FF01802504301EB800006EB01
:1036D0000010B0FBF5F000F0F002B1FBF5F002EBEA
:1036E0000012B1FBF5F06FF01803584301EB8000B6
:1036F00006EB0010B0FBF5F000F00F00216810445D
:10370000886070BDA0FB010192185B41FCF7ACFD25
:103710000146B0FBF5F00201B1FBF5F06FF01803C4
:10372000584301EB800006EBC000B0FBF5F000F061
:10373000F80002EB4002B1FBF5F0584301EB8000CA
:1037400006EBC000B0FBF5F000F00700D6E7000084
:10375000001001400014014038B5816282850025C7
:10376000134604460564222084F83E00A26B1C48E0
:10377000D063A26B1B481064A26B1B48D064A06B83
:103780000A4605652168A06B091DFDF7A5FD2068A7
:1037900001684068009084F83C50206948B1206876
:1037A0000C3050E8001F41F4807140E80012002AFC
:1037B000F5D12068143050E8001F41F0010140E8C5
:1037C0000012002AF5D12068143050E8001F41F0A3
:1037D000400140E80012002AF5D1002038BD000069
:1037E00085340008073500083B3400080148FEF71F
:1037F000EFBD000068020020FEE70907090E00285F
:1038000004DB00F1E02080F80014704700F00F00A6
:1038100000F1E02080F8141D70470000FDF7A0FEC5
:10382000FFF74AFCFFF732F9FFF7F2F8FFF75AF813
:10383000FFF7A6F8FFF7C8F8FFF7FEF9FFF77AFAE7
:10384000FFF7C4FAFFF71CFBFFF7D2F9FFF73AFBCB
:10385000FFF756FBFFF776FB122202490248FEF7FC
:1038600073FDFEE7D0040020680200204FF0407096
:10387000E1EE100A70470006101600061016000050
:103880000000000000000102030406070809000010
:103890000000010203040000B83800080000002006
:1038A00014000000C4010008CC38000814000020F7
:1038B00054350000E0010008000000000100000095
:0C38C00010000000000000000024F400D4
:040000050800018965
:00000001FF
